:100000000C94BB010C94D8010C94D8010C94D80129
:100010000C94D8010C94D8010C94D8010C94D801FC
:100020000C94D8010C94D8010C94D8010C94D801EC
:100030000C94D8010C94D8010C94F70A0C94D801B4
:100040000C94D8010C94D8010C94D8010C94D801CC
:100050000C94D8010C94F8020C94D8010C94D8019B
:100060000C94D8010C94D801E401EE01FA010602C7
:1000700012021E022A02360242020808205F000015
:10008000000000000000183C3C18180018006666CC
:100090002400000000006C6CFE6CFE6C6C00183ECE
:1000A000603C067C180000C6CC183066C600386C70
:1000B0003876DCCC760018183000000000000C18F0
:1000C000303030180C0030180C0C0C183000006662
:1000D0003CFF3C6600000018187E18180000000065
:1000E0000000001818300000007E00000000000032
:1000F000000000181800060C183060C080007CC694
:10010000CED6E6C67C001838181818187E007CC6B3
:10011000061C3066FE007CC6063C06C67C001C3C05
:100120006CCCFE0C1E00FEC0C0FC06C67C00386015
:10013000C0FCC6C67C00FEC60C18303030007CC641
:10014000C67CC6C67C007CC6C67E060C780000183D
:100150001800001818000018180000181830060CB5
:100160001830180C060000007E00007E0000603091
:10017000180C183060007CC60C18180018007CC6DB
:10018000DEDEDEC07800386CC6FEC6C6C600FC6681
:10019000667C6666FC003C66C0C0C0663C00F86CCD
:1001A0006666666CF800FE6268786862FE00FE6251
:1001B00068786860F0003C66C0C0CE663A00C6C68B
:1001C000C6FEC6C6C6003C18181818183C001E0CFF
:1001D0000C0CCCCC7800E6666C786C66E600F060BF
:1001E00060606266FE00C6EEFEFED6C6C600C6E6CB
:1001F000F6DECEC6C6007CC6C6C6C6C67C00FC6699
:10020000667C6060F0007CC6C6C6C6CE7C0EFC660E
:10021000667C6C66E6007CC660380CC67C007E7E20
:100220005A1818183C00C6C6C6C6C6C67C00C6C644
:10023000C6C6C66C3800C6C6C6D6D6FE6C00C6C6D4
:100240006C386CC6C6006666663C18183C00FEC674
:100250008C183266FE003C30303030303C00C060DC
:1002600030180C0602003C0C0C0C0C0C3C00103836
:100270006CC60000000000000000000000FF301805
:100280000C00000000000000780C7CCC7600E060E0
:100290007C666666DC0000007CC6C0C67C001C0C68
:1002A0007CCCCCCC760000007CC6FEC07C003C66DA
:1002B00060F86060F000000076CCCC7C0CF8E06068
:1002C0006C766666E6001800381818183C000600C0
:1002D00006060666663CE060666C786CE6003818D8
:1002E000181818183C000000ECFED6D6D600000006
:1002F000DC666666660000007CC6C6C67C00000040
:10030000DC66667C60F0000076CCCC7C0C1E0000C5
:10031000DC766060F00000007EC07C06FC003030BF
:10032000FC3030361C000000CCCCCCCC7600000079
:10033000C6C6C66C38000000C6D6D6FE6C000000EB
:10034000C66C386CC6000000C6C6C67E06FC00003F
:100350007E4C18327E000E18187018180E001818EF
:100360001818181818007018180E1818700076DC75
:1003700000000000000011241FBECFEFD8E0DEBF58
:10038000CDBF13E0A0E0B1E0E4E1F7E302C00590E7
:100390000D92A430B107D9F725E0A4E0B3E001C085
:1003A0001D92A238B207E1F70E941D0C0C94881B25
:1003B0000C94000090E08930910508F069C0FC01C0
:1003C000EC5CFF4F0C940D17ECE7F0E08081807F30
:1003D0008083EEE7F0E0808110820895ECE7F0E0A2
:1003E0008081807F81608083EEE7F0E0808181E022
:1003F00080830895ECE7F0E08081807F82608083D5
:10040000EEE7F0E0808182E080830895ECE7F0E0A1
:100410008081807F83608083EEE7F0E0808183E0ED
:1004200080830895ECE7F0E08081807F84608083A2
:10043000EEE7F0E0808184E080830895ECE7F0E06F
:100440008081807F85608083EEE7F0E0808185E0B9
:1004500080830895ECE7F0E08081807F8660808370
:10046000EEE7F0E0808186E080830895ECE7F0E03D
:100470008081807F87608083EEE7F0E0808187E085
:1004800080830895ECE7F0E08081807F886080833E
:100490000895CF93DF93ECE7F0E080818F73806461
:1004A0008083CAE7D0E0888187608883EBE7F0E04B
:1004B0008081887F8360808388818862888381E0EF
:1004C0000E94DA01888180688883DF91CF91089546
:1004D000DC0190E040E050E0BA010DC0E92FF0E00F
:1004E000EE0FFF1FEA0FFB1F20813181420F531FC8
:1004F000611D711D9F5F9F3F89F7BB27A72F962F17
:10050000852F08958F929F92AF92BF92CF92DF92E4
:10051000EF92FF92CF93DF93EB0169017A01BC0167
:1005200080E090E00E94CC15A70196010E945A1627
:100530004B015C01A701960160E070E080E89FE359
:100540000E94B7146B017C01BE0180E090E00E9424
:10055000CC15A70196010E945A169B01AC01C5015A
:10056000B4010E94B8140E949D15CB01DF91CF9178
:10057000FF90EF90DF90CF90BF90AF909F908F90C3
:100580000895AF92BF92CF92DF92EF92FF920F93B6
:100590001F93CF93DF938C01A62E69017A01BB24B0
:1005A000B39419C08B2D90E0EC01C150D048CC0F12
:1005B000DD1FC00FD11F68817981880F991FF80155
:1005C000E80FF91F80819181A70196010E948202A4
:1005D00099838883B394BA1428F3DF91CF911F9144
:1005E0000F91FF90EF90DF90CF90BF90AF90089564
:1005F0001F920F920FB60F9211242F938F939F93F8
:10060000EF93FF93E091040381E08E0F8093040346
:10061000F0E0209178008091790090E0982F882771
:10062000822BEE0FFF1FEB5FFC4F91838083FF91C6
:10063000EF919F918F912F910F900FBE0F901F9070
:1006400018950F931F93CF93DF93C82F8B01D42F4F
:100650000E94C70B8C2F0E94E10BC0E007C0F8017D
:10066000EC0FF11D80810E94E10BCF5FCD17B8F335
:100670000E94020C80E0DF91CF911F910F910895AD
:10068000CF93DF93C82FD62F0E94C70B8C2F0E94C9
:10069000E10B8D2F0E94E10B0E94C70B8C2F816014
:1006A0000E94E10B85E00E94080CC82F0E94020CFA
:1006B0008C2FDF91CF910895EF92FF921F93CF93EC
:1006C000DF93C82F162F7A01D22F0E94C70B8C2FD1
:1006D0000E94E10B843069F5812F0E94E10B843088
:1006E00051F50E94C70B8C2F81600E94E10B843072
:1006F00021F5C0E018C02C2F30E08D2F90E001973D
:100700002817390744F484E00E94080CF701EC0F25
:10071000F11D808307C085E00E94080CF701EC0FF3
:10072000F11D8083CF5FCD1730F30E94020C80E073
:1007300005C081E003C081E001C081E0DF91CF917D
:100740001F91FF90EF900895CF93DF9300D0CDB726
:10075000DEB784E0898386EB8A8342E0BE016F5F67
:100760007F4F8CEE0E9421030F900F90DF91CF916D
:100770000895242FAB01682F8CEE0E945C0380E06B
:100780000895CF93DF93EC0149E165E075E088E8D7
:100790000E94B90347E06EE175E081EE0E94B90363
:1007A000E5E0F5E0818190E0982F88272081822B79
:1007B00099838883838190E0982F88272281822BD8
:1007C0009B838A83858190E0982F88272481822BC0
:1007D0009D838C83878190E0982F88272681822BA8
:1007E0009F838E83818590E0982F88272085822B98
:1007F00099878887838590E0982F88272285822B88
:100800009B878A87858590E0982F88272485822B6F
:100810009D878C87878590E0982F88272685822B57
:100820009F878E87818990E0982F88272089822B47
:10083000998B888B838990E0982F88272289822B37
:100840009B8B8A8B858990E0982F88272489822B1F
:100850009D8B8C8B878990E0982F88272689822B07
:100860009F8B8E8B808D888F828D90E0982F88272C
:10087000218D822B9A8F898F838D8B8F848D20E1A0
:10088000829FC0011124258D2F70822B9D8F8C8F0C
:10089000868D20E1829FC0011124258D22952F7025
:1008A000822B9F8F8E8F878D88A380E0DF91CF91E1
:1008B0000895EF920F931F93CF93DF9300D000D052
:1008C00000D0CDB7DEB792EF99838A8385EF8B8313
:1008D00070E0660F771F660F771F80E2489FA001C8
:1008E0001124462B4C8384EF8D8330E0220F331F7D
:1008F000220F331F80E2089F80011124022B0E2952
:100900000E8360ED8CEE0E944003803679F40E94E5
:10091000A40346E0BE016F5F7F4F8CEE0E9421036F
:1009200085E295E00E94C10380E001C081E0269647
:100930000FB6F894DEBF0FBECDBFDF91CF911F91F0
:100940000F91EF9008954F925F926F927F928F92E6
:100950009F92AF92BF92CF92DF92EF92FF920F934E
:100960001F93CF93DF9300D01F92CDB7DEB78C01DA
:1009700019821A821B8243E0BE016F5F7F4F8AEFAC
:100980000E94B903C980D12CE12CF12C0B2EBCE0C4
:10099000CC0CDD1CEE1CFF1CBA95D1F7B02D8A8162
:1009A00020E1829FC0011124092E000CAA0BBB0B71
:1009B000C82AD92AEA2AFB2A8B8182958F70C82AF5
:1009C000B701A601689412F87695679557954795F3
:1009D0001694D1F7F80140805180612C712CD3011D
:1009E000C201880F991FAA1FBB1F9A01AB01281BC8
:1009F000390B4A0B5B0BA281B3810E942D174B016F
:100A00005C01072E7BE0B694A794979487947A951F
:100A1000D1F7702DD701C601689413F8B695A79544
:100A2000979587951694D1F7BC01CD016419750986
:100A3000860997099B01AC010E94C7169B01AC0176
:100A4000012E1CE056954795379527951A95D1F7B5
:100A5000102DA481B5810E942D17DC01CB01072E3A
:100A60007EE0B695A795979587957A95D1F7702DE5
:100A7000880D991DAA1DBB1D81A392A3A3A3B4A396
:100A80008C019D01000F111F221F331F000F111F2A
:100A9000221F331F800F911FA21FB31F80589F4F2B
:100AA000AF4FBF4F692F7A2F8B2F992787FD9A95CC
:100AB0000F900F900F90DF91CF911F910F91FF90AA
:100AC000EF90DF90CF90BF90AF909F908F907F90EE
:100AD0006F905F904F9008952F923F924F925F9248
:100AE0006F927F928F929F92AF92BF92CF92DF923E
:100AF000EF92FF920F931F93CF93DF93CDB7DEB7A3
:100B0000A8970FB6F894DEBF0FBECDBF4C01198277
:100B10001A821B821C821D821E821F8218861986E1
:100B20001A861B861C861D861E861F86188A198AB1
:100B30001A8A1B8A1C8A1D8A1E8A1F8A188E198E81
:100B40001A8E1B8E1C8E1D8E1E8E1F8E43E0BE01C4
:100B50006F5F7F4F87EF0E94B903898190E0A0E02B
:100B6000B0E0072E7CE0880F991FAA1FBB1F7A9563
:100B7000D1F7702D4A8100E1409FA0011124052E7C
:100B8000000C660B770B842B952BA62BB72B2B8198
:100B900022952F70822B4C815D816E817F81842B09
:100BA000952BA62BB72B8C839D83AE83BF83F4013B
:100BB00081A192A1A3A1B4A12C013D01770C44080D
:100BC000542C3201282F392F4A2F5B2F642D742D7E
:100BD000842D942D345F41405109610971098109C7
:100BE0009109288739874A875B876C877D878E873D
:100BF0009F87288539854A855B856C857D858E85AF
:100C00009F85A884B984CA84DB84EC84FD840E8526
:100C10001F850E943517D4015196BC90519750966C
:100C2000AC901B2D110F110BC12ED12EE12EF12EE8
:100C3000012F0E943517288B398B4A8B5B8B6C8B6D
:100C40007D8B8E8B9F8BF40137852685932F990F93
:100C5000990BA884B984CA84DB84EC84FD840E8556
:100C60001F85492F592F692F792F892F0E943517FA
:100C700001E10E946518A888B988CA88DB88EC88D9
:100C8000FD880E891F890E949C18288B398B4A8BFE
:100C90005B8B6C8B7D8B8E8B9F8BD4011D963C91D7
:100CA0001D971C962C91932F990F990B492F592F13
:100CB000692F792F892F03E20E946518A888B988C7
:100CC000CA88DB88EC88FD880E891F890E949C18E1
:100CD000288B398B4A8B5B8B6C8B7D8B8E8B9F8BA0
:100CE000288539854A855B856C857D858E859F85C0
:100CF000A884B984CA84DB84EC84FD840E851F85B6
:100D00000E943517F401B384A2841B2D110F110B1F
:100D1000C12ED12EE12EF12E012F0E94351708E0B1
:100D20000E947E18222E332E442E552E662E772EAC
:100D300088A398A7F40131852085932F990F990BEB
:100D4000A884B984CA84DB84EC84FD840E851F8565
:100D5000492F592F692F792F892F0E9435170CE0C1
:100D60000E946518A22EB32EC42ED52EE62EF72E85
:100D7000082F192F222D332D442D552D662D772D1B
:100D800088A198A50E949C18288739874A875B8785
:100D90006C877D878E879F87288539854A855B8507
:100DA0006C857D858E859F8570588F4F9F4FD401B0
:100DB0001696ED91FC9117975F01C12CD12CE12C77
:100DC000F12C8701E8A3B9A2CAA2DBA2ECA2FDA282
:100DD0000EA31FA3C12CD12CE12CF12C00E010E0BC
:100DE0000E94351701E20E947E18288739874A87BA
:100DF0005B876C877D878E879F87288539854A85A5
:100E00005B856C857D858E859F85A0E00E94AE18F0
:100E100009F423C14C815D816E817F8180E090E087
:100E2000A0E1B0E0841B950BA60BB70BAC01BD0194
:100E3000770F440B542FBA01888F998FAA8FBB8FDD
:100E40004C8F4D8F4E8F4F8F288D398D4A8D5B8DF6
:100E50006C8D7D8D8E8D9F8D0FE10E946518A88809
:100E6000B988CA88DB88EC88FD880E891F890E94B2
:100E7000A5180F2EF5E3AF2EF02D0F2EFCE0BF2EA0
:100E8000F02DC12CD12CE12CF12C00E010E00E94BF
:100E90003517A884B984CA84DB84EC84FD840E856C
:100EA0001F850E949017288F398F4A8F5B8F6C8F18
:100EB0007D8F8E8F9F8FD4015796FC9157975696B2
:100EC0007C90EF2FEE0FEE0B288D398D4A8D5B8DC8
:100ED0006C8D7D8D8E8D9F8D0DE00E947E18A22ED3
:100EE000B32EC42ED52EE62EF72E082F192F272D20
:100EF0003F2F4E2F5E2F6E2F7E2F8E2F9E2F0E9404
:100F00003517422E532E642E752EB62FA72FF82F8D
:100F1000E92F288D398D4A8D5B8D6C8D7D8D8E8D61
:100F20009F8D0DE00E947E18A22EB32EC42ED52ECA
:100F3000E62EF72E082F192F242D352D462D572D4F
:100F40006B2F7A2F8F2F9E2F0E94351709E10E9459
:100F50007E18288739874A875B876C877D878E87CD
:100F60009F87F40135892489932F990F990BA88CB9
:100F7000B98CCA8CDB8CEC8CFD8C0E8D1F8D492FAF
:100F8000592F692F792F892F0E94351703E10E946D
:100F90007E18288B398B4A8B5B8B6C8B7D8B8E8B71
:100FA0009F8B288D398D4A8D5B8D6C8D7D8D8E8DBF
:100FB0009F8DA884B984CA84DB84EC84FD840E856B
:100FC0001F850E949C18A888B988CA88DB88EC888D
:100FD000FD880E891F890E949C1808E00E947E18D7
:100FE000422E532E642E752EB62FA72F382E292E63
:100FF000F40133892289932F990F990B492F592F87
:10100000692F792F892F04E00E946518A22EB32E34
:10101000C42ED52EE62EF72E082F192F242D352D70
:10102000462D572D6B2F7A2F832D922D0E949C18C1
:10103000288F398F4A8F5B8F6C8F7D8F8E8F9F8F1C
:10104000588D498D3A8D2B8D8C8D8D8D8E8D8F8DFC
:10105000652F742F832F922F04C060E070E080E032
:1010600090E0A8960FB6F894DEBF0FBECDBFDF911B
:10107000CF911F910F91FF90EF90DF90CF90BF9095
:10108000AF909F908F907F906F905F904F903F9028
:101090002F9008952F923F924F925F926F927F927E
:1010A0008F929F92AF92BF92CF92DF92EF92FF9278
:1010B0000F931F93CF93DF93CDB7DEB76B970FB628
:1010C000F894DEBF0FBECDBF4C011A82198242E0F8
:1010D000BE016F5F7F4F8DEF0E94B903898190E061
:1010E000982F88272A81822BA0E0B0E0F40141A04C
:1010F00052A063A074A0FCE25F1AF1E06F0A7108CD
:1011000093018201330F000B102F98010B831C8376
:101110002D833E83072E7EE0880F991FAA1FBB1FD9
:101120007A95D1F7702DF401448D558D052E000C64
:10113000660B770B032E34E1440F551F661F771F94
:101140003A95D1F7302D8C019D01041B150B260B10
:10115000370B0F83188729873A87378D268D932F72
:10116000990F990BA42CB52CC62CD72CEB80FE2CF8
:101170000E2D1E2D492F592F692F792F892F0E944F
:101180003517A22EB32EC42ED52EE62EF72E082FFD
:10119000192F4F81588569857A859A01AB0160E0E6
:1011A00070E0CB01388749875A876B877C878D87AA
:1011B0009E8760E070E080E090E00E94A518305CBF
:1011C0004F4F5F4F6F4F7F4F8F4F9F4F0FE00E94EA
:1011D0007E182F833F87488B598B6A8B7B8B8C8B38
:1011E0009D8BD40190962C91922F990F990BA42C42
:1011F000B52CC62CD72CEB80FE2C0E2D1E2D392F96
:10120000492F592F692F792F892F0E9435170AE00E
:101210000E947E18222E332E4E8B5F8B688F798F23
:101220008A8F9B8FF401238DFE2C0E2D30E040E041
:1012300050E060E070E080E090E00E9435170BE045
:101240000E947E1830584F4F5F4F6F4F7F4F8F4F28
:101250009F4FA22EB32EC42ED52EE62EF72E082F8A
:10126000192F222D332D4E895F89688D798D8A8DB6
:101270009B8D0E9435170AE00E947E18405E5F4FEA
:101280006F4F7F4F8F4F9F4FA22EB32E192FD40138
:101290005A963C915A9759962C91932F990F990BE6
:1012A000C42ED52EE62EF72E082F492F592F692F41
:1012B000792F892F0E943517305E4F4F5F4F6F4F48
:1012C0007F4F8F4F9F4F0EE00E947E18A22EB32EAD
:1012D000C42ED52EE62EF72E082F192F2F813F85ED
:1012E000488959896A897B898C899D890E9435172B
:1012F000222E332E442E552E662E772E8B839F83DF
:101300000FE00E947E18A22EB32EC42ED52EE62EFC
:10131000F72E082F192F0E94351707E00E947E181C
:10132000A22E192FF401208D922F990F990BB32E15
:10133000C42ED52EE62EF72E082F392F492F592FE0
:10134000692F792F892F0E94351704E00E947E189B
:10135000A22EB32EC42ED52EE62EF72E082F192F2F
:10136000222D332D442D552D662D772D8B819F8178
:101370000E94A518D22EE32EF42E052F162FB72F7C
:10138000F82FE92FA0E00E94AE1844F4D12CE12CF4
:10139000F12C00E010E0B0E0F0E0E0E06D2C7E2CFD
:1013A0008F2C902EA12EBB2ECF2EAE2F2D2D3E2D6D
:1013B0004F2D502F612F7B2F8F2F9E2F2115310501
:1013C00041055941610571058105910561F05CF0A8
:1013D000612C712C812C0F2EF9E19F2EF02DA12C68
:1013E000B12CC12CA0E0262D372D482D592D6A2D6A
:1013F0007B2D8C2D9A2F0CE00E947E18622F732F6C
:10140000842F952F6B960FB6F894DEBF0FBECDBF1D
:10141000DF91CF911F910F91FF90EF90DF90CF90D0
:10142000BF90AF909F908F907F906F905F904F9004
:101430003F902F900895AF92BF92CF92DF92EF929C
:10144000FF920F931F93CF93DF93CDB7DEB76497CF
:101450000FB6F894DEBF0FBECDBF80914C05882338
:1014600009F487C085E295E00E94A3040E94CE158E
:1014700020E030E048EC52E40E9424159F938F93C3
:101480007F936F938DEE91E09F938F93CE010196A2
:101490005C019F938F930E94D5180F2EFAE7CF2EF1
:1014A000F0E0DF2EF02D0F2EEE24EA94FFE7FF2E62
:1014B000F02D00E010E020E0A50162E370E080E0A4
:1014C00090E00E94161385E295E00E944A080E946F
:1014D000CC1520E030E040E85AE30E945A169F9372
:1014E0008F937F936F9380E092E09F938F93BF924F
:1014F000AF920E94D5180F2EE12CF8EFFF2EF02DA1
:1015000020E0A5016CE370E080E090E00E941613FB
:1015100085E295E00E946C05672F782F892F992727
:101520000E94CC152DEC3CE445E053E40E942415C8
:101530000E949D157F936F9384E192E09F938F9318
:10154000BF92AF920E94D5180F2EF0EEEF2EFF241F
:10155000FA94F02D20E0A50166E470E080E090E0D0
:101560000E94161310924C050FB6F894DEBF0FBE02
:10157000CDBF64960FB6F894DEBF0FBECDBFDF912E
:10158000CF911F910F91FF90EF90DF90CF90BF9080
:10159000AF9008958AB1837E8AB98BB180618BB98F
:1015A0008AB18F778AB98BB180688BB98AB1826032
:1015B0008AB98BB182608BB98AB181608AB98BB1EB
:1015C00081608BB9089580914F058C6080934F05A1
:1015D00016BC84B5826084BD85B5856085BD8DE30C
:1015E00087BDEEE6F0E080818260808308951F92DF
:1015F0000F920FB60F9211248F939F9399B1809100
:101600004F0589238695869580930101909101016C
:1016100080910001981709F459C080910001813030
:10162000C9F028F0823049F18330D1F14BC080916C
:101630000101823029F4809151058F5F809351051B
:10164000809101018130F1F5809150058F5F809389
:10165000500538C080910101811105C0809151056C
:101660008F5F8093510580910101833059F58091FE
:1016700050058F5F8093500525C080910101833014
:1016800029F4809151058F5F80935105809101016C
:10169000811118C0809150058F5F8093500512C052
:1016A00080910101813029F4809151058F5F8093F1
:1016B000510580910101823029F4809150058F5F9E
:1016C0008093500580910101809300014C9907C0DF
:1016D00080914B058F3F19F08F5F80934B05809170
:1016E0004B05873938F04C9B05C081E0809353054A
:1016F00010924B0580914B058150853938F44C9BF5
:1017000005C081E08093550510924B054F9907C0A5
:1017100080914A058F3F19F08F5F80934A05809131
:101720004A058150853938F44F9B05C081E080938C
:10173000540510924A0580914A05873938F04F9B2D
:1017400005C081E08093520510924A0580914D05B5
:101750008F5F80934D0580914D05811103C081E01D
:1017600080934E0580914D058D3721F481E0809363
:101770004C0502C080914C059F918F910F900FBE38
:101780000F901F9018958CE08093B8000895ECEBB3
:10179000F0E08081846A80838091BC008823E4F734
:1017A0008091B900887F21E0883009F020E091E045
:1017B000803109F090E0922B11F082E0089580E0F2
:1017C00008958093BB0084E88093BC008091BC00A6
:1017D0008823E4F78091B900887F21E0883109F0FF
:1017E00020E091E0883209F090E0922B21E08034F3
:1017F00009F020E0911102C0222311F084E0089545
:1018000085E00895ECEBF0E08081846980830895A1
:10181000843031F4ECEBF0E08081846C808306C08E
:10182000ECEBF0E080818B73846880838091BC0056
:101830008823E4F78091BB0008950E94CA0A0E94A1
:10184000E30A0E947B100E9469100E94941080E0BD
:1018500090E00E94461278940E9469140E94490206
:101860000E94C30B0F2EF3E0EF2EF02D01E021E0DC
:1018700045E060E081E00E9459040E94201082E36C
:101880000E9439100E94F30D0F2EFAE7CF2EF0E0E0
:10189000DF2EF02D0F2EE12CF8EFFF2EF02D00E0C3
:1018A00010E020E045E252E068E270E080E090E085
:1018B0000E94161360ED8CEE0E944003282F30E04A
:1018C00040E050E056010F2EC12CF8EFDF2EF02D36
:1018D000E12CF12C68E270E084E690E00E94B613FF
:1018E00065010F2EE12CF8EFFF2EF02D00E010E047
:1018F00020E04FE252E064E170E080E090E00E947E
:1019000016130E94030E282F30E040E050E00F2E07
:10191000C12CF8EFDF2EF02DE12CF12C64E170E00A
:1019200084E690E00E94B613809102010E94391073
:1019300080910201853618F084E6809302010F2E13
:10194000FAE7CF2EF0E0DF2EF02D0F2EE12CF8EF8E
:10195000FF2EF02D00E010E020E047E352E060E0D1
:1019600070E080E090E00E9416132091020130E0C8
:1019700040E050E05601CC24CA94DC2CE12CF12C40
:1019800060E070E084E690E00E94551380914E057F
:10199000882309F46BC02DEC3CEC4CEC5DE36FEF5D
:1019A00085E093E00E94C10285E093E00E94680216
:1019B000EC01BC0180E090E00E94CC152CEE31E5FA
:1019C00040E950E40E945A1620E030E040E85AE333
:1019D0000E945A162B013C0165010F2EE12CF8EFF5
:1019E000FF2EF02D00E010E020E041E452E06AE03C
:1019F00070E080E090E00E94161345010F2EFFE199
:101A0000AF2EF8EFBF2EF02DC12CD12CE12C09E424
:101A100012E0A30192016AE070E084E690E00E9487
:101A2000101464010F2EFFE1EF2EF8EFFF2EF02DC2
:101A300000E010E020E04FE452E06AE070E084E86B
:101A400090E00E94161381E592E00E947C14CE0182
:101A50000E94891489EA91E00E947C1484E795E051
:101A60000E94F90E0E94810F10924E050E941B0ADF
:101A70000F2EFAE7CF2EF0E0DF2EF02D0F2EE12C07
:101A8000F8EFFF2EF02D00E010E020E04CE552E0F2
:101A90006EE170E080E090E00E9416130E946C0FEF
:101AA0009B01AC014601AA24AA94BA2CC12CD12CCA
:101AB000E12C05E612E06EE170E084E690E00E9421
:101AC00010148091570590E020915605821B9109D2
:101AD0001816190674F481E792E00E947C14809134
:101AE000570590E00E94891489EA91E00E947C14D5
:101AF0000FC099236CF48AE692E00E947C148091D6
:101B0000570590E00E94891489EA91E00E947C14B4
:101B1000809157058093560580915405811110924C
:101B2000540580915505882321F00E945B10109286
:101B3000550580915105823070F0809102018F5FD0
:101B400080930201809157058F5F80935705109213
:101B500051051092500580915005823008F4E4CE72
:101B6000809102018150809302018091570581503C
:101B7000809357051092500510925105D5CECF9302
:101B8000DF93C82FD62F0E94C70B8C2F0E94E10B2A
:101B90008D2F0E94E10B0E94C70B8C2F81600E9449
:101BA000E10B85E00E94080CC82F0E94020C8C2FCC
:101BB000DF91CF9108951F93CF93DF93182FD62FE6
:101BC000C42F0E94C70B812F0E94E10B8D2F0E9412
:101BD000E10B8C2F0E94E10B0E94020C80E0DF9150
:101BE000CF911F91089540E06CE180ED0E94DB0DE4
:101BF00040E06BE180ED0E94DB0D40E06BE680EDA4
:101C00000E94DB0D089565E780ED0E94BF0D0895E9
:101C10000895FF920F931F93CF93DF93C82FF62E53
:101C20008A01D22F0E94C70B8C2F0E94E10B8430B7
:101C3000F1F58F2D0E94E10B8430D9F50E94C70B7E
:101C40008C2F81600E94E10B8430A9F5C0E018C0A0
:101C50002C2F30E08D2F90E001972817390744F49E
:101C600084E00E94080CF801EC0FF11D808307C08E
:101C700085E00E94080CF801EC0FF11D8083CF5F16
:101C8000CD1730F30E94020C80E020E030E007C066
:101C9000F801E80FF11D9081290F311D8F5F8D171D
:101CA000B8F3232B51F40E94F30D80E007C081E0CC
:101CB00005C081E003C081E001C080E0DF91CF91E9
:101CC0001F910F91FF900895242FAB01682F80ED95
:101CD0000E94090E80E00895613099F028F062308A
:101CE000F9F0633059F137C09C01992314F4215065
:101CF000304C330F220B330F322F221F822F932FA2
:101D000008959C01992314F42150304E832F85951A
:101D10008595859585958595932F990F990B0895B0
:101D20009C01992314F42150304F832F859585957C
:101D300085958595932F990F990B08959C0199236B
:101D400014F42150384F832F859585958595932FD1
:101D5000990F990B089580E090E008956130B1F0FB
:101D600028F0623019F1633089F140C0BC01990F4D
:101D7000880B990B0E94CE1520E030E043E053E43D
:101D80000E9424150E949615CB010895BC01990F5D
:101D9000880B990B0E94CE1520E030E042E852E417
:101DA0000E9424150E949615CB010895BC01990F3D
:101DB000880B990B0E94CE1520E030E044E052E4FD
:101DC0000E9424150E949615CB010895BC01990F1D
:101DD000880B990B0E94CE1523E333E343E851E4CB
:101DE0000E9424150E949615CB01089580E090E092
:101DF00008950F931F93CF93DF938C014EE068E516
:101E000075E08BE30E94640EC8E5D5E0888190E020
:101E1000982F88272981822B0E94080E60E00E945B
:101E20006C0EF801918380838A8190E0982F882737
:101E30002B81822B0E94080E60E00E946C0EF8013C
:101E4000938382838C8190E0982F88272D81822B29
:101E50000E94080E60E00E946C0EF8019583848356
:101E60008E8190E0382F22278F81082E000C990B4D
:101E7000822B932B97838683888190E0982F8827E5
:101E80002981822B0E94080E60E00E94AE0EF801AC
:101E9000918780878A8190E0982F88272B81822BD9
:101EA0000E94080E60E00E94AE0EF80193878287C0
:101EB0008C8190E0982F88272D81822B0E94080E1C
:101EC00060E00E94AE0EF8019587848780E0DF9184
:101ED000CF911F910F91089580917A0590917B0584
:101EE00064E571E00E94D716072E000C880B990B51
:101EF0000E94CE1528EB3EE142E152E40E94B81464
:101F00000895EF92FF920F931F93CF93DF93CDB776
:101F1000DEB764970FB6F894DEBF0FBECDBF0F2EAD
:101F2000F4E7EF2EF5E0FF2EF02DF70181818F937E
:101F300080818F938CE792E09F938F938E010F5F48
:101F40001F4F1F930F930E94D518C8010E947C1445
:101F5000F70183818F9382818F938DE892E09F9325
:101F60008F931F930F930E94D518C8010E947C1471
:101F7000F70185818F9384818F938EE992E09F93FF
:101F80008F931F930F930E94D518C8010E947C1451
:101F9000F70181858F9380858F938FEA92E09F93DD
:101FA0008F931F930F930E94D518C8010E947C1431
:101FB000F70183858F9382858F938FEB92E09F93B8
:101FC0008F931F930F930E94D518C8010E947C1411
:101FD000F70185858F9384858F938FEC92E09F9393
:101FE0008F931F930F930E94D5180FB6F894DEBFFE
:101FF0000FBECDBFC8010E947C14F70187818F936B
:1020000086818F938FED92E09F938F931F930F9311
:102010000E94D518C8010E947C140F900F900F9059
:102020000F900F900F9064960FB6F894DEBF0FBE1E
:10203000CDBFDF91CF911F910F91FF90EF90089549
:1020400010928500109284008EE390E090938700B8
:1020500080938600E0E8F0E080818F738068808361
:10206000808182608083E1E8F0E080818861808304
:102070000895853608F084E6282F30E0AEE3B0E01E
:102080000E94131724E630E040E050E00E94EB1677
:102090003093890020938800E0E8F0E0808182603E
:1020A0008083E1E8F0E08081886180838081887F9F
:1020B000846080830895E1E8F0E08081887F8083F8
:1020C000A0E8B0E08C918D7F8C938081877E8083A7
:1020D000089584B1886284B98CB58C7F8CBD8DB530
:1020E00081608DBD8CB580658CBD08958EBD0DB4AD
:1020F00007FEFDCF089584B1826084B984B1846005
:1021000084B984B1806184B984B1816084B908954F
:1021100095B19B7F95B90E947610089595B1946012
:1021200095B90E947610089585B18E7F85B985B1E5
:10213000806185B98FE19EE40197F1F700C000004E
:1021400085B18F7E85B98FE19EE40197F1F700C0DC
:10215000000085B1806185B98FE19EE40197F1F7B8
:1021600000C0000081E00E9488109FEF22E587E018
:10217000915020408040E1F700C0000081E10E94C2
:1021800088109FEF29E688E1915020408040E1F7D8
:1021900000C0000081EB0E94881081E00E948E1038
:1021A0008CE20E948E108DE20E948E1082EB0E94C3
:1021B000881081E00E948E108CE20E948E108DE2C9
:1021C0000E948E1083EB0E94881081E00E948E1086
:1021D0008CE20E948E108DE20E948E1081E00E949F
:1021E0008E108CE20E948E108DE20E948E1084EB85
:1021F0000E94881087E00E948E1080EC0E94881058
:1022000082EA0E948E1082E00E948E1084E80E9472
:102210008E1081EC0E94881085EC0E948E1082EC5A
:102220000E9488108AE00E948E1080E00E948E102A
:1022300083EC0E9488108AE80E948E108AE20E9435
:102240008E1084EC0E9488108AE80E948E108EEE18
:102250000E948E1085EC0E9488108EE00E948E10E5
:1022600081E20E94881086E30E94881088E60E941E
:102270008E108AE30E94881085E00E948E1080EE06
:102280000E94881082E00E948E108CE10E948E10C5
:1022900087E00E948E1082E10E948E1087E30E94E8
:1022A0008E1082E30E948E1089E20E948E108DE2D1
:1022B0000E948E1089E20E948E1085E20E948E108C
:1022C0008BE20E948E1089E30E948E1080E00E94B3
:1022D0008E1081E00E948E1083E00E948E1080E1BB
:1022E0000E948E1081EE0E94881083E00E948E1062
:1022F0008DE10E948E1087E00E948E1086E00E9481
:102300008E108EE20E948E108CE20E948E1089E266
:102310000E948E108DE20E948E108EE20E948E101E
:102320008EE20E948E1087E30E948E108FE30E943F
:102330008E1080E00E948E1080E00E948E1082E05D
:102340000E948E1080E10E948E1083E10E9488100E
:102350008FE39CE90197F1F700C0000089E20E9439
:1023600088109FEF21EE84E0915020408040E1F7FB
:1023700000C0000085B1816085B90895CF92DF92D9
:10238000EF92FF920F931F93CF93DF93EC016B01BA
:102390007A0189018BE20E948810C7014A96892F31
:1023A0000E948E108AE18E0D0E948E10C701800F50
:1023B000911F4996892F0E948E108E2D800F875E67
:1023C0000E948E108AE20E948810CE010196892F09
:1023D0000E948E108C2F8F5F0E948E10CE018C0D6C
:1023E0009D1D892F0E948E108C2F8C0D0E948E10A7
:1023F000DF91CF911F910F91FF90EF90DF90CF90E1
:1024000008958F929F92AF92BF92EF92FF920F9397
:102410001F93CF93DF93EA01790125B12E7F25B970
:102420009701AB01BE010E94BE118CE20E94881090
:1024300085B1846085B9812C912C54010BC0812F0A
:102440000E948E10802F0E948E108FEF881A980A9B
:10245000A80AB80ACE9DC001CF9D900DDE9D900DBB
:102460001124A0E0B0E088169906AA06BB0638F34E
:1024700085B1816085B9DF91CF911F910F91FF9058
:10248000EF90BF90AF909F908F9008950F931F9300
:102490008C0120E530E040EA50E060E070E080E050
:1024A00090E00E9401121F910F9108955F926F9228
:1024B0007F928F929F92AF92BF92CF92DF92EF92D4
:1024C000FF920F931F93CF93DF93CDB7DEB7C2591F
:1024D000D1400FB6F894DEBF0FBECDBFDB01D22EC8
:1024E000C32E512EB701F701F490F694F694F694AA
:1024F0003296E491242F30E02E1B3109AB014F5F5F
:102500005F4FFA01E490E29EF001E39EF00D11248A
:10251000FE9E9001FF9E300D11242C5F3F4F3A83A9
:102520002983FA01E490FE9CE02C11244E01F3E093
:102530008F0E911C0F2EF0E9AF2EBB24B394F02D1B
:10254000F4019501119221503040E1F720E030E094
:1025500010C0E981FA81E20FF31FE60FF71FB49074
:10256000E3E0F0E0EC0FFD1FE20FF31FB0822F5FFE
:102570003F4FAE2CB12C2A153B0558F325B12E7FC9
:1025800025B9FA012491449130E0642F70E0AD0147
:102590000E94BE118CE20E94881085B1846085B9CA
:1025A000812C912C26C0F401E60DF11D23E030E0D2
:1025B0002C0F3D1FE20FF31F708010E011C0772039
:1025C0003CF4852D0E947610802F0E94761006C064
:1025D0008C2D0E9476108D2D0E947610770C1F5F37
:1025E000183068F3639401C0612C6F14E0F28F0C13
:1025F000911C8A149B04C0F385B1816085B9CE56C5
:10260000DE4F0FB6F894DEBF0FBECDBFDF91CF9186
:102610001F910F91FF90EF90DF90CF90BF90AF9000
:102620009F908F907F906F905F9008953F924F9210
:102630005F926F927F928F929F92AF92BF92CF9252
:10264000DF92EF92FF920F931F93CF93DF935C0182
:102650003B01EA01322E4801270112C02196760182
:1026600082019401B301C5010E945612F601249122
:10267000832D032C000C990B820F911DA80EB91EFF
:1026800048814111EBCFDF91CF911F910F91FF90C6
:10269000EF90DF90CF90BF90AF909F908F907F9002
:1026A0006F905F904F903F9008953F924F925F924E
:1026B0006F927F928F929F92AF92BF92CF92DF9252
:1026C000EF92FF920F931F93CF93DF93CDB7DEB7B7
:1026D0002A970FB6F894DEBF0FBECDBF3C012B0189
:1026E000302E870176016501CE0101964C018AE00A
:1026F000F40111928A95E9F75F934F933F932F93DB
:102700008EEE92E09F938F939F928F920E94D518A6
:10271000992749E050E0481B590B60E270E0880DB2
:10272000991D0E94CE18232DA401B201C3010E945D
:1027300016130FB6F894DEBF0FBECDBF2A960FB6A4
:10274000F894DEBF0FBECDBFDF91CF911F910F91E7
:10275000FF90EF90DF90CF90BF90AF909F908F90C1
:102760007F906F905F904F903F9008952F923F928F
:102770005F926F927F928F929F92AF92BF92CF9211
:10278000DF92EF92FF920F931F93CF93DF93CDB71A
:10279000DEB72A970FB6F894DEBF0FBECDBF3C015F
:1027A0001B01502E870176016501CE0101964C0177
:1027B0008AE0F40111928A95E9F75F934F933F9372
:1027C0002F9382EF92E09F938F9385EF92E09F93F8
:1027D0008F939F928F920E94D518252DA401B1014D
:1027E000C3010E9416130FB6F894DEBF0FBECDBF13
:1027F0002A960FB6F894DEBF0FBECDBFDF91CF9102
:102800001F910F91FF90EF90DF90CF90BF90AF900E
:102810009F908F907F906F905F903F902F90089542
:102820003F924F925F926F927F928F929F92AF9260
:10283000BF92CF92DF92EF92FF920F931F93CF93AD
:10284000DF93CDB7DEB72C970FB6F894DEBF0FBE7F
:10285000CDBF3C017C876B87802F912F3E2C86015A
:1028600075016401BE016F5F7F4F2B016AE0F201C9
:1028700011926A95E9F75F934F933F932F939F933C
:102880008F935F924F920E94D518232DA2016B85E2
:102890007C85C3010E9416130FB6F894DEBF0FBEED
:1028A000CDBF2C960FB6F894DEBF0FBECDBFDF9123
:1028B000CF911F910F91FF90EF90DF90CF90BF903D
:1028C000AF909F908F907F906F905F904F903F90D0
:1028D000089588E18093C10086E08093C20087E676
:1028E0008093C4001092C50008959091C00095FF98
:1028F000FCCF8093C6000895CF93DF93EC0103C013
:1029000021960E94751488818111FACFDF91CF91B1
:1029100008950F931F93CF93DF9300D000D01F92A1
:10292000CDB7DEB78E010F5F1F4F25E0F801119282
:102930002A95E9F79F938F938BEF92E09F938F9364
:102940001F930F930E94D518C8010E947C140F900A
:102950000F900F900F900F900F900F900F900F907F
:102960000F900F90DF91CF911F910F9108955058C4
:10297000BB27AA270E94CF140C9420160E9412167F
:1029800038F00E94191620F039F49F3F19F426F40C
:102990000C940F160EF4E095E7FB0C940916E92F42
:1029A0000E94311658F3BA17620773078407950718
:1029B00020F079F4A6F50C9453160EF4E0950B2E46
:1029C000BA2FA02D0B01B90190010C01CA01A00181
:1029D0001124FF27591B99F0593F50F4503E68F1DC
:1029E0001A16F040A22F232F342F4427585FF3CF1D
:1029F000469537952795A795F0405395C9F77EF4EE
:102A00001F16BA0B620B730B840BBAF09150A1F036
:102A1000FF0FBB1F661F771F881FC2F70EC0BA0FBC
:102A2000621F731F841F48F4879577956795B79544
:102A3000F7959E3F08F0B0CF9395880F08F099273F
:102A4000EE0F9795879508950E9438150C942016DF
:102A50000E94191658F00E94121640F029F45F3FA8
:102A600029F00C94091651110C9454160C940F165D
:102A70000E94311668F39923B1F3552391F3951B06
:102A8000550BBB27AA2762177307840738F09F5F8F
:102A90005F4F220F331F441FAA1FA9F335D00E2EFC
:102AA0003AF0E0E832D091505040E695001CCAF769
:102AB0002BD0FE2F29D0660F771F881FBB1F26172C
:102AC00037074807AB07B0E809F0BB0B802DBF0103
:102AD000FF2793585F4F3AF09E3F510578F00C94D2
:102AE00009160C9454165F3FE4F3983ED4F3869590
:102AF00077956795B795F7959F5FC9F7880F911DF3
:102B00009695879597F90895E1E0660F771F881FDE
:102B1000BB1F621773078407BA0720F0621B730B91
:102B2000840BBA0BEE1F88F7E09508950E949D155F
:102B30006894B1110C94541608950E94391688F0C7
:102B40009F5798F0B92F9927B751B0F0E1F0660F71
:102B5000771F881F991F1AF0BA95C9F714C0B130B2
:102B600091F00E945316B1E008950C945316672F0C
:102B7000782F8827B85F39F0B93FCCF386957795E1
:102B80006795B395D9F73EF49095809570956195CA
:102B90007F4F8F4F9F4F0895E89409C097FB3EF4F5
:102BA00090958095709561957F4F8F4F9F4F99239A
:102BB000A9F0F92F96E9BB279395F6958795779518
:102BC0006795B795F111F8CFFAF4BB0F11F460FFD8
:102BD0001BC06F5F7F4F8F4F9F4F16C0882311F030
:102BE00096E911C0772321F09EE8872F762F05C044
:102BF000662371F096E8862F70E060E02AF09A95DF
:102C0000660F771F881FDAF7880F9695879597F9D3
:102C1000089597F99F6780E870E060E008959FEF5E
:102C200080EC089500240A94161617061806090663
:102C3000089500240A941216130614060506089532
:102C4000092E0394000C11F4882352F0BB0F40F4BA
:102C5000BF2B11F460FF04C06F5F7F4F8F4F9F4FFA
:102C6000089557FD9058440F551F59F05F3F71F07C
:102C70004795880F97FB991F61F09F3F79F08795E3
:102C80000895121613061406551FF2CF4695F1DF6C
:102C900008C0161617061806991FF1CF86957105FC
:102CA000610508940895E894BB2766277727CB0130
:102CB00097F908950E946D160C9420160E94121622
:102CC00038F00E94191620F0952311F00C94091683
:102CD0000C940F1611240C9454160E94311670F3A4
:102CE000959FC1F3950F50E0551F629FF001729FB1
:102CF000BB27F00DB11D639FAA27F00DB11DAA1FC0
:102D0000649F6627B00DA11D661F829F2227B00D0C
:102D1000A11D621F739FB00DA11D621F839FA00D97
:102D2000611D221F749F3327A00D611D231F849FE7
:102D3000600D211D822F762F6A2F11249F5750403E
:102D40009AF0F1F088234AF0EE0FFF1FBB1F661FB9
:102D5000771F881F91505040A9F79E3F510580F082
:102D60000C9409160C9454165F3FE4F3983ED4F388
:102D7000869577956795B795F795E7959F5FC1F726
:102D8000FE2B880F911D9695879597F90895DB0185
:102D90008F939F930E942217BF91AF91A29F800DA6
:102DA000911DA39F900DB29F900D1124089597FB44
:102DB000072E16F4009407D077FD09D00E94BA18A8
:102DC00007FC05D03EF4909581959F4F089570952E
:102DD00061957F4F0895A1E21A2EAA1BBB1BFD012E
:102DE0000DC0AA1FBB1FEE1FFF1FA217B307E407EA
:102DF000F50720F0A21BB30BE40BF50B661F771F42
:102E0000881F991F1A9469F7609570958095909521
:102E10009B01AC01BD01CF010895EE0FFF1F05908E
:102E2000F491E02D0994A29FB001B39FC001A39F2C
:102E3000700D811D1124911DB29F700D811D1124F3
:102E4000911D08950E941317A59F900DB49F900D9A
:102E5000A49F800D911D11240895B7FF0C94221793
:102E60000E942217821B930B0895DF93CF931F9329
:102E70000F939A9DF02D219FF00D8B9DF00D8A9D53
:102E8000E02DF10D039FF00D029FE00DF11D4E9D11
:102E9000E00DF11D5E9DF00D4F9DF00D7F936F9342
:102EA000BF92AF925F934F93D5010E9413178B018E
:102EB000AC01D7010E941317EB01E80FF91FD601EF
:102EC0000E9485172F913F91D6010E941317C60FBC
:102ED000D71FE81FF91FAF91BF910E9485172F914F
:102EE0003F910E941317C60FD71FE81FF91FD60185
:102EF0000E941317E60FF71F9801BE01CF0111249E
:102F00000F911F91CF91DF9108950E941317460FE3
:102F1000571FC81FD91F08F431960895689401C03F
:102F2000E894F92FF12B12F00C94C217A0E0B0E056
:102F3000ECE9F7E10C943418092E059422F40E9470
:102F40001E18112392F4F0E80F26FFEFE094F0949E
:102F500000951095B094C094D094A194BF0ACF0A64
:102F6000DF0AEF0AFF0A0F0B1F0B0E94CD1707FCA9
:102F70000E941E18CDB7DEB7ECE00C945018689490
:102F800001C0E8948F929F92CF93DF930E94CD1758
:102F9000DF91CF919F908F90089588249924F40118
:102FA000E401B0E49F93AA279A158B049C04ED05D5
:102FB000FE05CF05D007A10798F4AD2FDC2FCF2F4A
:102FC000FE2FE92D982C892E982F872F762F652F8D
:102FD000542F432F322F2227B85031F7BF9127C0EB
:102FE0001B2EBF91BB27220F331F441F551F661F87
:102FF000771F881F991F881C991CEE1FFF1FCC1F6D
:10300000DD1FAA1FBB1F8A149B04EC05FD05CE051E
:10301000DF05A007B10748F08A189B08EC09FD09F5
:10302000CE09DF09A00BB10B21601A94E1F62EF452
:103030009401AF01BE01CD01000C0895609570951B
:103040008095909530954095509521953F4F4F4FE5
:103050005F4F6F4F7F4F8F4F9F4F08952F923F923B
:103060004F925F926F927F928F929F92AF92BF9298
:10307000CF92DF92EF92FF920F931F93CF93DF9344
:10308000CDB7DEB7CA1BDB0B0FB6F894DEBF0FBEA1
:10309000CDBF09942A88398848885F846E847D84EE
:1030A0008C849B84AA84B984C884DF80EE80FD80F0
:1030B0000C811B81AA81B981CE0FD11D0FB6F89466
:1030C000DEBF0FBECDBFED0108950F93083090F025
:1030D000982F872F762F652F542F432F322F22279B
:1030E0000850F4CF220F331F441F551F661F771F50
:1030F000881F991F0A95B2F70F91089597FB10F852
:10310000169400080F93083098F00850232F342F9E
:10311000452F562F672F782F892F902DF4CF0594A8
:1031200097958795779567955795479537952795FF
:103130000A95AAF70F9108952A0D3B1D4C1D5D1DA0
:103140006E1D7F1D801F911F08952A193B094C0990
:103150005D096E097F09800B910B08950024A7FD7E
:1031600000942A173005400550056005700580055C
:1031700090050895AA1BBB1B51E107C0AA1FBB1FE6
:10318000A617B70710F0A61BB70B881F991F5A95F3
:10319000A9F780959095BC01CD010895DC0101C08F
:1031A0006D9341505040E0F70895AEE0B0E0EBED94
:1031B000F8E10C943C180D891E8986E08C831A83F3
:1031C00009838FEF9FE79E838D83AE01475E5F4F3C
:1031D0006F89788DCE0101960E94F718EF81F885EE
:1031E000E00FF11F10822E96E4E00C945818ABE02B
:1031F000B0E0EDEFF8E10C942E186C017B018A0130
:10320000FC0117821682838181FFCCC1CE01019619
:103210003C01F6019381F70193FD859193FF819124
:103220007F01882309F4BAC1853239F493FD859171
:1032300093FF81917F01853229F4B60190E00E94CD
:10324000EE1AE7CF912C212C312CFFE1F315D8F0A9
:103250008B3279F038F4803279F08332A1F4232D67
:1032600020611DC08D3261F0803369F4232D21600F
:1032700016C0832D8260382EE32DE4603E2E2AC0D6
:10328000F32DF8601DC037FC2DC020ED280F2A302B
:1032900040F08E32B9F436FC81C1232D2064322EE9
:1032A00019C036FE06C08AE0989E200D1124922E89
:1032B00011C0EAE02E9E200D1124222EF32DF06283
:1032C0003F2E08C08C3621F4832D8068382E02C032
:1032D000883641F4F70193FD859193FF81917F0139
:1032E0008111B3CF982F9F7D9554933028F40C5FB4
:1032F0001F4F9FE399830DC0833631F0833771F000
:10330000833509F059C021C0F801808189830E5F9F
:103310001F4F88248394912C530113C02801F2E09D
:103320004F0E511CF801A080B18036FE03C0692DFC
:1033300070E002C06FEF7FEFC5010E94E31A4C01FD
:103340008201F32DFF773F2E16C0280122E0420EA6
:10335000511CF801A080B18036FE03C0692D70E0D9
:1033600002C06FEF7FEFC5010E94D81A4C01F32D08
:10337000F0683F2E820133FC1BC0822D90E088163E
:103380009906B0F4B60180E290E00E94EE1A2A9409
:10339000F4CFF50137FC859137FE81915F01B601CD
:1033A00090E00E94EE1A21102A9421E0821A9108DE
:1033B0008114910471F7E8C0843611F0893641F523
:1033C000F80137FE07C060817181828193810C5FB3
:1033D0001F4F08C060817181072E000C880B990B6C
:1033E0000E5F1F4FF32DFF763F2E97FF09C090957C
:1033F0008095709561957F4F8F4F9F4FF0683F2E5E
:103400002AE030E0A3010E942A1B882E861845C0BE
:10341000853731F4232D2F7EB22E2AE030E025C0EF
:10342000932D997FB92E8F36C1F018F4883579F035
:10343000B5C0803719F0883721F0B0C0E92FE061BE
:10344000BE2EB4FE0DC0FB2DF460BF2E09C034FEAD
:103450000AC0292F2660B22E06C028E030E005C041
:1034600020E130E002C020E132E0F801B7FE07C001
:1034700060817181828193810C5F1F4F06C06081E2
:10348000718180E090E00E5F1F4FA3010E942A1B14
:10349000882E8618FB2DFF773F2E36FE0DC0232D7C
:1034A0002E7FA22E891458F434FE0BC032FC09C0C2
:1034B000832D8E7EA82E05C0B82CA32C03C0B82C5B
:1034C00001C0B92CA4FE0FC0FE01E80DF11D8081E2
:1034D000803321F49A2D997EA92E09C0A2FE06C040
:1034E000B394B39404C08A2D867809F0B394A3FCF6
:1034F00011C0A0FE06C0B21488F4280C922C9B18B0
:103500000EC0B21460F4B60180E290E00E94EE1AA0
:10351000B394F7CFB21418F42B1802C0982C212CB6
:10352000A4FE10C0B60180E390E00E94EE1AA2FE55
:1035300017C0A1FC03C088E790E002C088E590E0D6
:10354000B6010CC08A2D867859F0A1FE02C08BE22C
:1035500001C080E2A7FC8DE2B60190E00E94EE1A65
:10356000891438F4B60180E390E00E94EE1A9A9430
:10357000F7CF8A94F301E80DF11D8081B60190E048
:103580000E94EE1A8110F5CF222009F442CEB60136
:1035900080E290E00E94EE1A2A94F6CFF60186812E
:1035A000978102C08FEF9FEF2B96E2E10C944A18AF
:1035B000FC010590615070400110D8F780959095FE
:1035C0008E0F9F1F0895FC01615070400190011003
:1035D000D8F7809590958E0F9F1F08950F931F9396
:1035E000CF93DF93FB01238121FD03C08FEF9FEF7A
:1035F0002CC022FF16C04681578124813581421795
:10360000530744F4A081B1819D012F5F3F4F318367
:1036100020838C93268137812F5F3F4F378326830A
:1036200014C08B01EC01FB010084F185E02D0995AC
:10363000892BE1F6D80116968D919C9117970196EA
:1036400017969C938E931697CE01DF91CF911F9181
:103650000F910895FA01AA27283051F1203181F104
:10366000E8946F936E7F6E5F7F4F8F4F9F4FAF4F8A
:10367000B1E03ED0B4E03CD0670F781F891F9A1F9D
:10368000A11D680F791F8A1F911DA11D6A0F711D51
:10369000811D911DA11D20D009F468943F912AE05D
:1036A000269F11243019305D3193DEF6CF01089545
:1036B000462F4770405D4193B3E00FD0C9F7F6CF76
:1036C000462F4F70405D4A3318F0495D31FD40523E
:1036D000419302D0A9F7EACFB4E0A69597958795D4
:1036E00077956795BA95C9F70097610571050895B3
:1036F0009B01AC010A2E069457954795379527955F
:10370000BA95C9F7620F731F841F951FA01D0895F6
:04371000F894FFCF5B
:103714000303324449475F54313A2025750D0A00AA
:103724004449475F54323A2025640D0A004449470E
:103734005F54333A2025640D0A004449475F5031F1
:103744003A2025750D0A004449475F50323A202536
:10375400640D0A004449475F50333A2025640D0A3A
:10376400004449475F50343A2025640D0A00444917
:10377400475F50353A2025640D0A004449475F509D
:10378400363A2025640D0A004449475F50373A20F1
:1037940025640D0A004449475F50383A2025640DDA
:1037A4000A004449475F50393A2025640D0A004411
:1037B40049475F48313A2025640D0A004449475F70
:1037C40048323A2025640D0A004449475F48333A99
:1037D4002025750D0A004449475F48343A20256482
:1037E4000D0A004449475F48353A2025640D0A0014
:1037F4004449475F48363A2025640D0A0074656DD4
:1038040070202020202020202025302E31664300E7
:1038140068756D20202020202020202025302E3186
:1038240066252500707265737320202020202020D7
:1038340025756D6D00626D653238305F6964006DA9
:10384400707536303530006261636B6C696768741B
:1038540000766F6C746167650025302E31660076E2
:10386400004144435F76616C756520006D70755F3F
:1038740074656D7000252E316600636F756E746516
:1038840072636C6F636B7769736520006163636552
:103894006C5F786F75743A2025640D0A0061636368
:1038A400656C5F796F75743A2025640D0A00616355
:1038B40063656C5F7A6F75743A2025640D0A00673E
:1038C40079726F5F786F75743A2025640D0A00670A
:1038D40079726F5F796F75743A2025640D0A0067F9
:1038E40079726F5F7A6F75743A2025640D0A0074DB
:1038F400656D705F6F75743A2025640D0A00256C40
:1039040069003078002573256C78002564002573E0
:043914002578000012
:00000001FF
