S01000006176725F746573742E73726563AC
S11300000C94BB010C94D8010C94D8010C94D80125
S11300100C94D8010C94D8010C94D8010C94D801F8
S11300200C94D8010C94D8010C94D8010C94D801E8
S11300300C94D8010C94D8010C94F70A0C94D801B0
S11300400C94D8010C94D8010C94D8010C94D801C8
S11300500C94D8010C94F8020C94D8010C94D80197
S11300600C94D8010C94D801E401EE01FA010602C3
S113007012021E022A02360242020808205F000011
S1130080000000000000183C3C18180018006666C8
S11300902400000000006C6CFE6CFE6C6C00183ECA
S11300A0603C067C180000C6CC183066C600386C6C
S11300B03876DCCC760018183000000000000C18EC
S11300C0303030180C0030180C0C0C18300000665E
S11300D03CFF3C6600000018187E18180000000061
S11300E00000001818300000007E0000000000002E
S11300F0000000181800060C183060C080007CC690
S1130100CED6E6C67C001838181818187E007CC6AF
S1130110061C3066FE007CC6063C06C67C001C3C01
S11301206CCCFE0C1E00FEC0C0FC06C67C00386011
S1130130C0FCC6C67C00FEC60C18303030007CC63D
S1130140C67CC6C67C007CC6C67E060C7800001839
S11301501800001818000018180000181830060CB1
S11301601830180C060000007E00007E000060308D
S1130170180C183060007CC60C18180018007CC6D7
S1130180DEDEDEC07800386CC6FEC6C6C600FC667D
S1130190667C6666FC003C66C0C0C0663C00F86CC9
S11301A06666666CF800FE6268786862FE00FE624D
S11301B068786860F0003C66C0C0CE663A00C6C687
S11301C0C6FEC6C6C6003C18181818183C001E0CFB
S11301D00C0CCCCC7800E6666C786C66E600F060BB
S11301E060606266FE00C6EEFEFED6C6C600C6E6C7
S11301F0F6DECEC6C6007CC6C6C6C6C67C00FC6695
S1130200667C6060F0007CC6C6C6C6CE7C0EFC660A
S1130210667C6C66E6007CC660380CC67C007E7E1C
S11302205A1818183C00C6C6C6C6C6C67C00C6C640
S1130230C6C6C66C3800C6C6C6D6D6FE6C00C6C6D0
S11302406C386CC6C6006666663C18183C00FEC670
S11302508C183266FE003C30303030303C00C060D8
S113026030180C0602003C0C0C0C0C0C3C00103832
S11302706CC60000000000000000000000FF301801
S11302800C00000000000000780C7CCC7600E060DC
S11302907C666666DC0000007CC6C0C67C001C0C64
S11302A07CCCCCCC760000007CC6FEC07C003C66D6
S11302B060F86060F000000076CCCC7C0CF8E06064
S11302C06C766666E6001800381818183C000600BC
S11302D006060666663CE060666C786CE6003818D4
S11302E0181818183C000000ECFED6D6D600000002
S11302F0DC666666660000007CC6C6C67C0000003C
S1130300DC66667C60F0000076CCCC7C0C1E0000C1
S1130310DC766060F00000007EC07C06FC003030BB
S1130320FC3030361C000000CCCCCCCC7600000075
S1130330C6C6C66C38000000C6D6D6FE6C000000E7
S1130340C66C386CC6000000C6C6C67E06FC00003B
S11303507E4C18327E000E18187018180E001818EB
S11303601818181818007018180E1818700076DC71
S113037000000000000011241FBECFEFD8E0DEBF54
S1130380CDBF13E0A0E0B1E0EAE4F6E302C00590DB
S11303900D92AA32B107D9F725E0AAE2B3E001C071
S11303A01D92A83AB207E1F70E941D0C0C94231B7E
S11303B00C94000090E08930910508F069C0FC01BC
S11303C0EC5CFF4F0C94A816ECE7F0E08081807F92
S11303D08083EEE7F0E0808110820895ECE7F0E09E
S11303E08081807F81608083EEE7F0E0808181E01E
S11303F080830895ECE7F0E08081807F82608083D1
S1130400EEE7F0E0808182E080830895ECE7F0E09D
S11304108081807F83608083EEE7F0E0808183E0E9
S113042080830895ECE7F0E08081807F846080839E
S1130430EEE7F0E0808184E080830895ECE7F0E06B
S11304408081807F85608083EEE7F0E0808185E0B5
S113045080830895ECE7F0E08081807F866080836C
S1130460EEE7F0E0808186E080830895ECE7F0E039
S11304708081807F87608083EEE7F0E0808187E081
S113048080830895ECE7F0E08081807F886080833A
S11304900895CF93DF93ECE7F0E080818F7380645D
S11304A08083CAE7D0E0888187608883EBE7F0E047
S11304B08081887F8360808388818862888381E0EB
S11304C00E94DA01888180688883DF91CF91089542
S11304D0DC0190E040E050E0BA010DC0E92FF0E00B
S11304E0EE0FFF1FEA0FFB1F20813181420F531FC4
S11304F0611D711D9F5F9F3F89F7BB27A72F962F13
S1130500852F08958F929F92AF92BF92CF92DF92E0
S1130510EF92FF92CF93DF93EB0169017A01BC0163
S113052080E090E00E946715A70196010E94F515EE
S11305304B015C01A701960160E070E080E89FE355
S11305400E9452146B017C01BE0180E090E00E9485
S11305506715A70196010E94F5159B01AC01C50121
S1130560B4010E9453140E943815CB01DF91CF913E
S1130570FF90EF90DF90CF90BF90AF909F908F90BF
S11305800895AF92BF92CF92DF92EF92FF920F93B2
S11305901F93CF93DF938C01A62E69017A01BB24AC
S11305A0B39419C08B2D90E0EC01C150D048CC0F0E
S11305B0DD1FC00FD11F68817981880F991FF80151
S11305C0E80FF91F80819181A70196010E948202A0
S11305D099838883B394BA1428F3DF91CF911F9140
S11305E00F91FF90EF90DF90CF90BF90AF90089560
S11305F01F920F920FB60F9211242F938F939F93F4
S1130600EF93FF93E0912A0381E08E0F80932A03F6
S1130610F0E0209178008091790090E0982F88276D
S1130620822BEE0FFF1FE55DFC4F91838083FF91CA
S1130630EF919F918F912F910F900FBE0F901F906C
S113064018950F931F93CF93DF93C82F8B01D42F4B
S11306500E94C70B8C2F0E94E10BC0E007C0F80179
S1130660EC0FF11D80810E94E10BCF5FCD17B8F331
S11306700E94020C80E0DF91CF911F910F910895A9
S1130680CF93DF93C82FD62F0E94C70B8C2F0E94C5
S1130690E10B8D2F0E94E10B0E94C70B8C2F816010
S11306A00E94E10B85E00E94080CC82F0E94020CF6
S11306B08C2FDF91CF910895EF92FF921F93CF93E8
S11306C0DF93C82F162F7A01D22F0E94C70B8C2FCD
S11306D00E94E10B843069F5812F0E94E10B843084
S11306E051F50E94C70B8C2F81600E94E10B84306E
S11306F021F5C0E018C02C2F30E08D2F90E0019739
S11307002817390744F484E00E94080CF701EC0F21
S1130710F11D808307C085E00E94080CF701EC0FEF
S1130720F11D8083CF5FCD1730F30E94020C80E06F
S113073005C081E003C081E001C081E0DF91CF9179
S11307401F91FF90EF900895CF93DF9300D0CDB722
S1130750DEB784E0898386EB8A8342E0BE016F5F63
S11307607F4F8CEE0E9421030F900F90DF91CF9169
S11307700895242FAB01682F8CEE0E945C0380E067
S11307800895CF93DF93EC0149E16BE275E088E8CB
S11307900E94B90347E064E475E081EE0E94B90366
S11307A0EBE2F5E0818190E0982F88272081822B6D
S11307B099838883838190E0982F88272281822BD4
S11307C09B838A83858190E0982F88272481822BBC
S11307D09D838C83878190E0982F88272681822BA4
S11307E09F838E83818590E0982F88272085822B94
S11307F099878887838590E0982F88272285822B84
S11308009B878A87858590E0982F88272485822B6B
S11308109D878C87878590E0982F88272685822B53
S11308209F878E87818990E0982F88272089822B43
S1130830998B888B838990E0982F88272289822B33
S11308409B8B8A8B858990E0982F88272489822B1B
S11308509D8B8C8B878990E0982F88272689822B03
S11308609F8B8E8B808D888F828D90E0982F882728
S1130870218D822B9A8F898F838D8B8F848D20E19C
S1130880829FC0011124258D2F70822B9D8F8C8F08
S1130890868D20E1829FC0011124258D22952F7021
S11308A0822B9F8F8E8F878D88A380E0DF91CF91DD
S11308B00895EF920F931F93CF93DF9300D000D04E
S11308C000D0CDB7DEB792EF99838A8385EF8B830F
S11308D070E0660F771F660F771F80E2489FA001C4
S11308E01124462B4C8384EF8D8330E0220F331F79
S11308F0220F331F80E2089F80011124022B0E294E
S11309000E8360ED8CEE0E944003803679F40E94E1
S1130910A40346E0BE016F5F7F4F8CEE0E9421036B
S11309208BE495E00E94C10380E001C081E026963B
S11309300FB6F894DEBF0FBECDBFDF91CF911F91EC
S11309400F91EF9008954F925F926F927F928F92E2
S11309509F92AF92BF92CF92DF92EF92FF920F934A
S11309601F93CF93DF9300D01F92CDB7DEB78C01D6
S113097019821A821B8243E0BE016F5F7F4F8AEFA8
S11309800E94B903C980D12CE12CF12C0B2EBCE0C0
S1130990CC0CDD1CEE1CFF1CBA95D1F7B02D8A815E
S11309A020E1829FC0011124092E000CAA0BBB0B6D
S11309B0C82AD92AEA2AFB2A8B8182958F70C82AF1
S11309C0B701A601689412F87695679557954795EF
S11309D01694D1F7F80140805180612C712CD30119
S11309E0C201880F991FAA1FBB1F9A01AB01281BC4
S11309F0390B4A0B5B0BA281B3810E94C8164B01D1
S1130A005C01072E7BE0B694A794979487947A951B
S1130A10D1F7702DD701C601689413F8B695A79540
S1130A20979587951694D1F7BC01CD016419750982
S1130A30860997099B01AC010E9462169B01AC01D7
S1130A40012E1CE056954795379527951A95D1F7B1
S1130A50102DA481B5810E94C816DC01CB01072E9C
S1130A607EE0B695A795979587957A95D1F7702DE1
S1130A70880D991DAA1DBB1D81A392A3A3A3B4A392
S1130A808C019D01000F111F221F331F000F111F26
S1130A90221F331F800F911FA21FB31F80589F4F27
S1130AA0AF4FBF4F692F7A2F8B2F992787FD9A95C8
S1130AB00F900F900F90DF91CF911F910F91FF90A6
S1130AC0EF90DF90CF90BF90AF909F908F907F90EA
S1130AD06F905F904F9008952F923F924F925F9244
S1130AE06F927F928F929F92AF92BF92CF92DF923A
S1130AF0EF92FF920F931F93CF93DF93CDB7DEB79F
S1130B00A8970FB6F894DEBF0FBECDBF4C01198273
S1130B101A821B821C821D821E821F8218861986DD
S1130B201A861B861C861D861E861F86188A198AAD
S1130B301A8A1B8A1C8A1D8A1E8A1F8A188E198E7D
S1130B401A8E1B8E1C8E1D8E1E8E1F8E43E0BE01C0
S1130B506F5F7F4F87EF0E94B903898190E0A0E027
S1130B60B0E0072E7CE0880F991FAA1FBB1F7A955F
S1130B70D1F7702D4A8100E1409FA0011124052E78
S1130B80000C660B770B842B952BA62BB72B2B8194
S1130B9022952F70822B4C815D816E817F81842B05
S1130BA0952BA62BB72B8C839D83AE83BF83F40137
S1130BB081A192A1A3A1B4A12C013D01770C440809
S1130BC0542C3201282F392F4A2F5B2F642D742D7A
S1130BD0842D942D345F41405109610971098109C3
S1130BE09109288739874A875B876C877D878E8739
S1130BF09F87288539854A855B856C857D858E85AB
S1130C009F85A884B984CA84DB84EC84FD840E8522
S1130C101F850E94D016D4015196BC9051975096CE
S1130C20AC901B2D110F110BC12ED12EE12EF12EE4
S1130C30012F0E94D016288B398B4A8B5B8B6C8BCF
S1130C407D8B8E8B9F8BF40137852685932F990F8F
S1130C50990BA884B984CA84DB84EC84FD840E8552
S1130C601F85492F592F692F792F892F0E94D0165C
S1130C7001E10E940018A888B988CA88DB88EC883A
S1130C80FD880E891F890E943718288B398B4A8B5F
S1130C905B8B6C8B7D8B8E8B9F8BD4011D963C91D3
S1130CA01D971C962C91932F990F990B492F592F0F
S1130CB0692F792F892F03E20E940018A888B98828
S1130CC0CA88DB88EC88FD880E891F890E94371842
S1130CD0288B398B4A8B5B8B6C8B7D8B8E8B9F8B9C
S1130CE0288539854A855B856C857D858E859F85BC
S1130CF0A884B984CA84DB84EC84FD840E851F85B2
S1130D000E94D016F401B384A2841B2D110F110B81
S1130D10C12ED12EE12EF12E012F0E94D01608E013
S1130D200E941918222E332E442E552E662E772E0D
S1130D3088A398A7F40131852085932F990F990BE7
S1130D40A884B984CA84DB84EC84FD840E851F8561
S1130D50492F592F692F792F892F0E94D0160CE023
S1130D600E940018A22EB32EC42ED52EE62EF72EE6
S1130D70082F192F222D332D442D552D662D772D17
S1130D8088A198A50E943718288739874A875B87E6
S1130D906C877D878E879F87288539854A855B8503
S1130DA06C857D858E859F8570588F4F9F4FD401AC
S1130DB01696ED91FC9117975F01C12CD12CE12C73
S1130DC0F12C8701E8A3B9A2CAA2DBA2ECA2FDA27E
S1130DD00EA31FA3C12CD12CE12CF12C00E010E0B8
S1130DE00E94D01601E20E941918288739874A8781
S1130DF05B876C877D878E879F87288539854A85A1
S1130E005B856C857D858E859F85A0E00E94491851
S1130E1009F423C14C815D816E817F8180E090E083
S1130E20A0E1B0E0841B950BA60BB70BAC01BD0190
S1130E30770F440B542FBA01888F998FAA8FBB8FD9
S1130E404C8F4D8F4E8F4F8F288D398D4A8D5B8DF2
S1130E506C8D7D8D8E8D9F8D0FE10E940018A8886A
S1130E60B988CA88DB88EC88FD880E891F890E94AE
S1130E7040180F2EF5E3AF2EF02D0F2EFCE0BF2E01
S1130E80F02DC12CD12CE12CF12C00E010E00E94BB
S1130E90D016A884B984CA84DB84EC84FD840E85CE
S1130EA01F850E942B17288F398F4A8F5B8F6C8F79
S1130EB07D8F8E8F9F8FD4015796FC9157975696AE
S1130EC07C90EF2FEE0FEE0B288D398D4A8D5B8DC4
S1130ED06C8D7D8D8E8D9F8D0DE00E941918A22E34
S1130EE0B32EC42ED52EE62EF72E082F192F272D1C
S1130EF03F2F4E2F5E2F6E2F7E2F8E2F9E2F0E9400
S1130F00D016422E532E642E752EB62FA72FF82FEF
S1130F10E92F288D398D4A8D5B8D6C8D7D8D8E8D5D
S1130F209F8D0DE00E941918A22EB32EC42ED52E2B
S1130F30E62EF72E082F192F242D352D462D572D4B
S1130F406B2F7A2F8F2F9E2F0E94D01609E10E94BB
S1130F501918288739874A875B876C877D878E872E
S1130F609F87F40135892489932F990F990BA88CB5
S1130F70B98CCA8CDB8CEC8CFD8C0E8D1F8D492FAB
S1130F80592F692F792F892F0E94D01603E10E94CF
S1130F901918288B398B4A8B5B8B6C8B7D8B8E8BD2
S1130FA09F8B288D398D4A8D5B8D6C8D7D8D8E8DBB
S1130FB09F8DA884B984CA84DB84EC84FD840E8567
S1130FC01F850E943718A888B988CA88DB88EC88EE
S1130FD0FD880E891F890E94371808E00E9419189D
S1130FE0422E532E642E752EB62FA72F382E292E5F
S1130FF0F40133892289932F990F990B492F592F83
S1131000692F792F892F04E00E940018A22EB32E95
S1131010C42ED52EE62EF72E082F192F242D352D6C
S1131020462D572D6B2F7A2F832D922D0E94371822
S1131030288F398F4A8F5B8F6C8F7D8F8E8F9F8F18
S1131040588D498D3A8D2B8D8C8D8D8D8E8D8F8DF8
S1131050652F742F832F922F04C060E070E080E02E
S113106090E0A8960FB6F894DEBF0FBECDBFDF9117
S1131070CF911F910F91FF90EF90DF90CF90BF9091
S1131080AF909F908F907F906F905F904F903F9024
S11310902F9008952F923F924F925F926F927F927A
S11310A08F929F92AF92BF92CF92DF92EF92FF9274
S11310B00F931F93CF93DF93CDB7DEB76B970FB624
S11310C0F894DEBF0FBECDBF4C011A82198242E0F4
S11310D0BE016F5F7F4F8DEF0E94B903898190E05D
S11310E0982F88272A81822BA0E0B0E0F40141A048
S11310F052A063A074A0FCE25F1AF1E06F0A7108C9
S113110093018201330F000B102F98010B831C8372
S11311102D833E83072E7EE0880F991FAA1FBB1FD5
S11311207A95D1F7702DF401448D558D052E000C60
S1131130660B770B032E34E1440F551F661F771F90
S11311403A95D1F7302D8C019D01041B150B260B0C
S1131150370B0F83188729873A87378D268D932F6E
S1131160990F990BA42CB52CC62CD72CEB80FE2CF4
S11311700E2D1E2D492F592F692F792F892F0E944B
S1131180D016A22EB32EC42ED52EE62EF72E082F5F
S1131190192F4F81588569857A859A01AB0160E0E2
S11311A070E0CB01388749875A876B877C878D87A6
S11311B09E8760E070E080E090E00E944018305C20
S11311C04F4F5F4F6F4F7F4F8F4F9F4F0FE00E94E6
S11311D019182F833F87488B598B6A8B7B8B8C8B99
S11311E09D8BD40190962C91922F990F990BA42C3E
S11311F0B52CC62CD72CEB80FE2C0E2D1E2D392F92
S1131200492F592F692F792F892F0E94D0160AE070
S11312100E941918222E332E4E8B5F8B688F798F84
S11312208A8F9B8FF401238DFE2C0E2D30E040E03D
S113123050E060E070E080E090E00E94D0160BE0A7
S11312400E94191830584F4F5F4F6F4F7F4F8F4F89
S11312509F4FA22EB32EC42ED52EE62EF72E082F86
S1131260192F222D332D4E895F89688D798D8A8DB2
S11312709B8D0E94D0160AE00E941918405E5F4FB1
S11312806F4F7F4F8F4F9F4FA22EB32E192FD40134
S11312905A963C915A9759962C91932F990F990BE2
S11312A0C42ED52EE62EF72E082F492F592F692F3D
S11312B0792F892F0E94D016305E4F4F5F4F6F4FAA
S11312C07F4F8F4F9F4F0EE00E941918A22EB32E0E
S11312D0C42ED52EE62EF72E082F192F2F813F85E9
S11312E0488959896A897B898C899D890E94D0168D
S11312F0222E332E442E552E662E772E8B839F83DB
S11313000FE00E941918A22EB32EC42ED52EE62E5D
S1131310F72E082F192F0E94D01607E00E941918E3
S1131320A22E192FF401208D922F990F990BB32E11
S1131330C42ED52EE62EF72E082F392F492F592FDC
S1131340692F792F892F0E94D01604E00E94191862
S1131350A22EB32EC42ED52EE62EF72E082F192F2B
S1131360222D332D442D552D662D772D8B819F8174
S11313700E944018D22EE32EF42E052F162FB72FDD
S1131380F82FE92FA0E00E94491844F4D12CE12C55
S1131390F12C00E010E0B0E0F0E0E0E06D2C7E2CF9
S11313A08F2C902EA12EBB2ECF2EAE2F2D2D3E2D69
S11313B04F2D502F612F7B2F8F2F9E2F21153105FD
S11313C041055941610571058105910561F05CF0A4
S11313D0612C712C812C0F2EF9E19F2EF02DA12C64
S11313E0B12CC12CA0E0262D372D482D592D6A2D66
S11313F07B2D8C2D9A2F0CE00E941918622F732FCD
S1131400842F952F6B960FB6F894DEBF0FBECDBF19
S1131410DF91CF911F910F91FF90EF90DF90CF90CC
S1131420BF90AF909F908F907F906F905F904F9000
S11314303F902F900895AF92BF92CF92DF92EF9298
S1131440FF920F931F93CF93DF93CDB7DEB76497CB
S11314500FB6F894DEBF0FBECDBF8091720588230E
S113146009F487C08BE495E00E94A3040E946915E7
S113147020E030E048EC52E40E94BF149F938F9325
S11314807F936F938DEE91E09F938F93CE0101969E
S11314905C019F938F930E9470180F2EFAE7CF2E52
S11314A0F0E0DF2EF02D0F2EEE24EA94FFE7FF2E5E
S11314B0F02D00E010E020E0A50162E370E080E0A0
S11314C090E00E94B1128BE495E00E944A080E94C9
S11314D0671520E030E040E85AE30E94F5159F9339
S11314E08F937F936F9380E092E09F938F93BF924B
S11314F0AF920E9470180F2EE12CF8EFFF2EF02D02
S113150020E0A5016CE370E080E090E00E94B1125D
S11315108BE495E00E946C05672F782F892F99271B
S11315200E9467152DEC3CE445E053E40E94BF148F
S11315300E9438157F936F9384E192E09F938F9379
S1131540BF92AF920E9470180F2EF0EEEF2EFF2480
S1131550FA94F02D20E0A50166E470E080E090E0CC
S11315600E94B112109272050FB6F894DEBF0FBE3E
S1131570CDBF64960FB6F894DEBF0FBECDBFDF912A
S1131580CF911F910F91FF90EF90DF90CF90BF907C
S1131590AF9008958AB1837E8AB98BB180618BB98B
S11315A08AB18F778AB98BB180688BB98AB182602E
S11315B08AB98BB182608BB98AB181608AB98BB1E7
S11315C081608BB90895809175058C608093750551
S11315D016BC84B5826084BD85B5856085BD8DE308
S11315E087BDEEE6F0E080818260808308951F92DB
S11315F00F920FB60F9211248F939F9399B18091FC
S11316007505892386958695809301019091010142
S113161080910001981709F459C08091000181302C
S1131620C9F028F0823049F18330D1F14BC0809168
S11316300101823029F4809177058F5F80937705CB
S1131640809101018130F1F5809176058F5F80935F
S1131650760538C080910101811105C0809177051C
S11316608F5F8093770580910101833059F58091D4
S113167076058F5F8093760525C0809101018330C4
S113168029F4809177058F5F80937705809101011C
S1131690811118C0809176058F5F8093760512C002
S11316A080910101813029F4809177058F5F8093C7
S11316B0770580910101823029F4809176058F5F4E
S11316C08093760580910101809300014C9907C0B5
S11316D0809171058F3F19F08F5F80937105809120
S11316E07105873938F04C9B05C081E080937905FA
S11316F010927105809171058150853938F44C9BA5
S113170005C081E080937B05109271054F9907C055
S1131710809170058F3F19F08F5F809370058091E1
S113172070058150853938F44F9B05C081E0809362
S11317307A051092700580917005873938F04F9BB7
S113174005C081E08093780510927005809173053F
S11317508F5F8093730580917305811103C081E0CD
S113176080937405809173058D3721F481E0809313
S1131770720502C0809172059F918F910F900FBEE8
S11317800F901F9018958CE08093B8000895ECEBAF
S1131790F0E08081846A80838091BC008823E4F730
S11317A08091B900887F21E0883009F020E091E041
S11317B0803109F090E0922B11F082E0089580E0EE
S11317C008958093BB0084E88093BC008091BC00A2
S11317D08823E4F78091B900887F21E0883109F0FB
S11317E020E091E0883209F090E0922B21E08034EF
S11317F009F020E0911102C0222311F084E0089541
S113180085E00895ECEBF0E080818469808308959D
S1131810843031F4ECEBF0E08081846C808306C08A
S1131820ECEBF0E080818B73846880838091BC0052
S11318308823E4F78091BB0008950E94CA0A0E949D
S1131840E30A0E947B100E9469100E94C31080E08A
S113185090E00E94E11178940E9404140E944902CD
S11318600E94C30B0F2EF3E0EF2EF02D01E021E0D8
S113187045E060E081E00E9459040E94201082E368
S11318800E9439100E94F30D0F2EFAE7CF2EF0E0DC
S1131890DF2EF02D0F2EE12CF8EFFF2EF02D00E0BF
S11318A010E020E045E252E068E270E080E090E081
S11318B00E94B11260ED8CEE0E944003282F30E0AC
S11318C040E050E056010F2EC12CF8EFDF2EF02D32
S11318D0E12CF12C68E270E084E690E00E94511360
S11318E065010F2EE12CF8EFFF2EF02D00E010E043
S11318F020E04FE252E064E170E080E090E00E947A
S1131900B1120E94030E282F30E040E050E00F2E69
S1131910C12CF8EFDF2EF02DE12CF12C64E170E006
S113192084E690E00E945113809102010E943910D4
S113193080910201853618F084E6809302010F2E0F
S1131940FAE7CF2EF0E0DF2EF02D0F2EE12CF8EF8A
S1131950FF2EF02D00E010E020E047E352E060E0CD
S113196070E080E090E00E94B1122091020130E02A
S113197040E050E05601CC24CA94DC2CE12CF12C3C
S113198060E070E084E690E00E94F01280917405BB
S1131990882309F46BC02DEC3CEC4CEC5DE36FEF59
S11319A08BE293E00E94C1028BE293E00E94680202
S11319B0EC01BC0180E090E00E9467152CEE31E55B
S11319C040E950E40E94F51520E030E040E85AE395
S11319D00E94F5152B013C0165010F2EE12CF8EF57
S11319E0FF2EF02D00E010E020E041E452E06AE038
S11319F070E080E090E00E94B11245010F2EFFE1FB
S1131A00AF2EF8EFBF2EF02DC12CD12CE12C09E420
S1131A1012E0A30192016AE070E084E690E00E9483
S1131A20AB1364010F2EFFE1EF2EF8EFFF2EF02D24
S1131A3000E010E020E04FE452E06AE070E084E867
S1131A4090E00E94B11281E592E00E941714CE0149
S1131A500E94241489EA91E00E9417148AE995E00F
S1131A600E94F90E0E94810F109274050E941B0AB5
S1131A700F2EFAE7CF2EF0E0DF2EF02D0F2EE12C03
S1131A80F8EFFF2EF02D00E010E020E04CE552E0EE
S1131A906EE170E080E090E00E94B1120E946C0F51
S1131AA09B01AC014601AA24AA94BA2CC12CD12CC6
S1131AB0E12C05E612E06EE170E084E690E00E941D
S1131AC0AB1380917D0590E020917C05821B9109E8
S1131AD01816190674F481E792E00E941714809195
S1131AE07D0590E00E94241489EA91E00E94171475
S1131AF00FC099236CF48AE692E00E941714809137
S1131B007D0590E00E94241489EA91E00E94171454
S1131B1080917D0580937C0580917A0581111092D6
S1131B207A0580917B05882321F00E945B10109236
S1131B307B0580917705823070F0809102018F5F80
S1131B408093020180917D058F5F80937D051092C3
S1131B5077051092760580917605823008F4E4CEFC
S1131B608091020181508093020180917D05815012
S1131B7080937D051092760510927705D5CECF938C
S1131B80DF93C82FD62F0E94C70B8C2F0E94E10B26
S1131B908D2F0E94E10B0E94C70B8C2F81600E9445
S1131BA0E10B85E00E94080CC82F0E94020C8C2FC8
S1131BB0DF91CF9108951F93CF93DF93182FD62FE2
S1131BC0C42F0E94C70B812F0E94E10B8D2F0E940E
S1131BD0E10B8C2F0E94E10B0E94020C80E0DF914C
S1131BE0CF911F91089540E06CE180ED0E94DB0DE0
S1131BF040E06BE180ED0E94DB0D40E06BE680EDA0
S1131C000E94DB0D089565E780ED0E94BF0D0895E5
S1131C100895FF920F931F93CF93DF93C82FF62E4F
S1131C208A01D22F0E94C70B8C2F0E94E10B8430B3
S1131C30F1F58F2D0E94E10B8430D9F50E94C70B7A
S1131C408C2F81600E94E10B8430A9F5C0E018C09C
S1131C502C2F30E08D2F90E001972817390744F49A
S1131C6084E00E94080CF801EC0FF11D808307C08A
S1131C7085E00E94080CF801EC0FF11D8083CF5F12
S1131C80CD1730F30E94020C80E020E030E007C062
S1131C90F801E80FF11D9081290F311D8F5F8D1719
S1131CA0B8F3232B51F40E94F30D80E007C081E0C8
S1131CB005C081E003C081E001C080E0DF91CF91E5
S1131CC01F910F91FF900895242FAB01682F80ED91
S1131CD00E94090E80E00895613099F028F0623086
S1131CE0F9F0633059F137C09C01992314F4215061
S1131CF0304C330F220B330F322F221F822F932F9E
S1131D0008959C01992314F42150304E832F859516
S1131D108595859585958595932F990F990B0895AC
S1131D209C01992314F42150304F832F8595859578
S1131D3085958595932F990F990B08959C01992367
S1131D4014F42150384F832F859585958595932FCD
S1131D50990F990B089580E090E008956130B1F0F7
S1131D6028F0623019F1633089F140C0BC01990F49
S1131D70880B990B0E94691520E030E043E053E49E
S1131D800E94BF140E943115CB010895BC01990F24
S1131D90880B990B0E94691520E030E042E852E478
S1131DA00E94BF140E943115CB010895BC01990F04
S1131DB0880B990B0E94691520E030E044E052E45E
S1131DC00E94BF140E943115CB010895BC01990FE4
S1131DD0880B990B0E94691523E333E343E851E42C
S1131DE00E94BF140E943115CB01089580E090E059
S1131DF008950F931F93CF93DF938C014EE06EE70A
S1131E0075E08BE30E94640ECEE7D5E0888190E014
S1131E10982F88272981822B0E94080E60E00E9457
S1131E206C0EF801918380838A8190E0982F882733
S1131E302B81822B0E94080E60E00E946C0EF80138
S1131E40938382838C8190E0982F88272D81822B25
S1131E500E94080E60E00E946C0EF8019583848352
S1131E608E8190E0382F22278F81082E000C990B49
S1131E70822B932B97838683888190E0982F8827E1
S1131E802981822B0E94080E60E00E94AE0EF801A8
S1131E90918780878A8190E0982F88272B81822BD5
S1131EA00E94080E60E00E94AE0EF80193878287BC
S1131EB08C8190E0982F88272D81822B0E94080E18
S1131EC060E00E94AE0EF8019587848780E0DF9180
S1131ED0CF911F910F9108958091A0059091A10534
S1131EE064E571E00E947216072E000C880B990BB2
S1131EF00E94691528EB3EE142E152E40E9453142A
S1131F000895EF92FF920F931F93CF93DF93CDB772
S1131F10DEB764970FB6F894DEBF0FBECDBF0F2EA9
S1131F20FAE9EF2EF5E0FF2EF02DF70181818F9372
S1131F3080818F938CE792E09F938F938E010F5F44
S1131F401F4F1F930F930E947018C8010E9417140B
S1131F50F70183818F9382818F938DE892E09F9321
S1131F608F931F930F930E947018C8010E94171437
S1131F70F70185818F9384818F938EE992E09F93FB
S1131F808F931F930F930E947018C8010E94171417
S1131F90F70181858F9380858F938FEA92E09F93D9
S1131FA08F931F930F930E947018C8010E941714F7
S1131FB0F70183858F9382858F938FEB92E09F93B4
S1131FC08F931F930F930E947018C8010E941714D7
S1131FD0F70185858F9384858F938FEC92E09F938F
S1131FE08F931F930F930E9470180FB6F894DEBF5F
S1131FF00FBECDBFC8010E941714F70187818F93CC
S113200086818F938FED92E09F938F931F930F930D
S11320100E947018C8010E9417140F900F900F901F
S11320200F900F900F9064960FB6F894DEBF0FBE1A
S1132030CDBFDF91CF911F910F91FF90EF90089545
S113204010928500109284008EE390E090938700B4
S113205080938600E0E8F0E080818F73806880835D
S1132060808182608083E1E8F0E080818861808300
S11320700895853608F084E6282F30E0AEE3B0E01A
S11320800E94AE1624E630E040E050E00E9486163E
S11320903093890020938800E0E8F0E0808182603A
S11320A08083E1E8F0E08081886180838081887F9B
S11320B0846080830895E1E8F0E08081887F8083F4
S11320C0A0E8B0E08C918D7F8C938081877E8083A3
S11320D0089584B1886284B98CB58C7F8CBD8DB52C
S11320E081608DBD8CB580658CBD08958EBD0DB4A9
S11320F007FEFDCF089584B1826084B984B1846001
S113210084B984B1806184B984B1816084B908954B
S113211095B19B7F95B90E947610089595B194600E
S113212095B90E94761008958F929F92AF92BF92B4
S1132130CF92DF92EF92FF92CF93DF93EC014A01AB
S11321405B0185B1846085B9C12CD12C76010BC0AB
S1132150FE01EC0DFD1D80810E948E108FEFC81AC8
S1132160D80AE80AF80AC814D904EA04FB0480F37C
S1132170DF91CF91FF90EF90DF90CF90BF90AF9021
S11321809F908F90089585B18E7F85B985B18061C8
S113219085B98FE19EE40197F1F700C0000085B195
S11321A08F7E85B98FE19EE40197F1F700C00000AE
S11321B085B1806185B98FE19EE40197F1F700C094
S11321C0000081E00E9488109FEF22E587E0915093
S11321D020408040E1F700C0000081E10E948810A7
S11321E09FEF29E688E1915020408040E1F700C04C
S11321F0000081EB0E94881043E050E060E070E052
S113220081E293E00E94941084EB0E94881087E09E
S11322100E948E1080EC0E94881043E050E060E041
S113222070E08EE193E00E94941085EC0E94881087
S11322308EE00E948E1081E20E94881086E30E9444
S1132240881088E60E948E108AE30E94881085E038
S11322500E948E1080EE0E94881040E150E060E001
S113226070E08EE093E00E94941081EE0E9488104A
S113227040E150E060E070E08EEF92E00E94941044
S113228083E10E9488108FE39CE90197F1F700C075
S1132290000089E20E9488109FEF21EE84E09150B3
S11322A020408040E1F700C0000085B1816085B91D
S11322B00895CF92DF92EF92FF920F931F93CF93E3
S11322C0DF93EC016B017A0189018BE20E94881093
S11322D0C7014A96892F0E948E108AE18E0D0E94B2
S11322E08E10C701800F911F4996892F0E948E106E
S11322F08E2D800F875E0E948E108AE20E948810C5
S1132300CE010196892F0E948E108C2F8F5F0E9420
S11323108E10CE018C0D9D1D892F0E948E108C2F46
S11323208C0D0E948E10DF91CF911F910F91FF9021
S1132330EF90DF90CF9008958F929F92AF92BF92CB
S1132340EF92FF920F931F93CF93DF93EA017901EA
S113235025B12E7F25B99701AB01BE010E94591109
S11323608CE20E94881085B1846085B9812C912CFF
S113237054010BC0812F0E948E10802F0E948E105A
S11323808FEF881A980AA80AB80ACE9DC001CF9D7B
S1132390900DDE9D900D1124A0E0B0E08816990602
S11323A0AA06BB0638F385B1816085B9DF91CF9168
S11323B01F910F91FF90EF90BF90AF909F908F90DF
S11323C008950F931F938C0120E530E040EA50E01C
S11323D060E070E080E090E00E949C111F910F91FA
S11323E008955F926F927F928F929F92AF92BF9265
S11323F0CF92DF92EF92FF920F931F93CF93DF93CD
S1132400CDB7DEB7C259D1400FB6F894DEBF0FBEC8
S1132410CDBFDB01D22EC32E512EB701F701F490AC
S1132420F694F694F6943296E491242F30E02E1B21
S11324303109AB014F5F5F4FFA01E490E29EF00176
S1132440E39EF00D1124FE9E9001FF9E300D112499
S11324502C5F3F4F3A832983FA01E490FE9CE02CE1
S113246011244E01F3E08F0E911C0F2EF0E9AF2ED4
S1132470BB24B394F02DF401950111922150304006
S1132480E1F720E030E010C0E981FA81E20FF31FA8
S1132490E60FF71FB490E3E0F0E0EC0FFD1FE20F4E
S11324A0F31FB0822F5F3F4FAE2CB12C2A153B0592
S11324B058F325B12E7F25B9FA012491449130E0D7
S11324C0642F70E0AD010E9459118CE20E948810C3
S11324D085B1846085B9812C912C26C0F401E60D68
S11324E0F11D23E030E02C0F3D1FE20FF31F70803D
S11324F010E011C077203CF4852D0E947610802FC7
S11325000E94761006C08C2D0E9476108D2D0E949C
S11325107610770C1F5F183068F3639401C0612C48
S11325206F14E0F28F0C911C8A149B04C0F385B1E4
S1132530816085B9CE56DE4F0FB6F894DEBF0FBE6C
S1132540CDBFDF91CF911F910F91FF90EF90DF905E
S1132550CF90BF90AF909F908F907F906F905F903F
S113256008953F924F925F926F927F928F929F92C3
S1132570AF92BF92CF92DF92EF92FF920F931F938D
S1132580CF93DF935C013B01EA01322E480127011E
S113259012C02196760182019401B301C5010E9403
S11325A0F111F6012491832D032C000C990B820F59
S11325B0911DA80EB91E48814111EBCFDF91CF9137
S11325C01F910F91FF90EF90DF90CF90BF90AF904D
S11325D09F908F907F906F905F904F903F90089561
S11325E03F924F925F926F927F928F929F92AF929F
S11325F0BF92CF92DF92EF92FF920F931F93CF93EC
S1132600DF93CDB7DEB72A970FB6F894DEBF0FBEBF
S1132610CDBF3C012B01302E870176016501CE012F
S113262001964C018AE0F40111928A95E9F75F93CF
S11326304F933F932F938EEE92E09F938F939F92AD
S11326408F920E947018992749E050E0481B590B5B
S113265060E270E0880D991D0E946918232DA40181
S1132660B201C3010E94B1120FB6F894DEBF0FBECF
S1132670CDBF2A960FB6F894DEBF0FBECDBFDF9153
S1132680CF911F910F91FF90EF90DF90CF90BF906B
S1132690AF909F908F907F906F905F904F903F90FE
S11326A008952F923F925F926F927F928F929F92A2
S11326B0AF92BF92CF92DF92EF92FF920F931F934C
S11326C0CF93DF93CDB7DEB72A970FB6F894DEBF6A
S11326D00FBECDBF3C011B01502E87017601650161
S11326E0CE0101964C018AE0F40111928A95E9F732
S11326F05F934F933F932F9382EF92E09F938F9337
S113270085EF92E09F938F939F928F920E9470180F
S1132710252DA401B101C3010E94B1120FB6F89492
S1132720DEBF0FBECDBF2A960FB6F894DEBF0FBE34
S1132730CDBFDF91CF911F910F91FF90EF90DF906C
S1132740CF90BF90AF909F908F907F906F905F904D
S11327503F902F9008953F924F925F926F927F9295
S11327608F929F92AF92BF92CF92DF92EF92FF929D
S11327700F931F93CF93DF93CDB7DEB72C970FB68C
S1132780F894DEBF0FBECDBF3C017C876B87802FE2
S1132790912F3E2C860175016401BE016F5F7F4F4E
S11327A02B016AE0F20111926A95E9F75F934F9366
S11327B03F932F939F938F935F924F920E94701831
S11327C0232DA2016B857C85C3010E94B1120FB633
S11327D0F894DEBF0FBECDBF2C960FB6F894DEBFC3
S11327E00FBECDBFDF91CF911F910F91FF90EF905E
S11327F0DF90CF90BF90AF909F908F907F906F901D
S11328005F904F903F90089588E18093C10086E0E7
S11328108093C20087E68093C4001092C500089597
S11328209091C00095FFFCCF8093C6000895CF938C
S1132830DF93EC0103C021960E941014888181115A
S1132840FACFDF91CF9108950F931F93CF93DF9326
S113285000D000D01F92CDB7DEB78E010F5F1F4F9F
S113286025E0F80111922A95E9F79F938F938BEF56
S113287092E09F938F931F930F930E947018C80147
S11328800E9417140F900F900F900F900F900F90BD
S11328900F900F900F900F900F90DF91CF911F9199
S11328A00F9108955058BB27AA270E946A140C94CC
S11328B0BB150E94AD1538F00E94B41520F039F410
S11328C09F3F19F426F40C94AA150EF4E095E7FB47
S11328D00C94A415E92F0E94CC1558F3BA1762077B
S11328E073078407950720F079F4A6F50C94EE1588
S11328F00EF4E0950B2EBA2FA02D0B01B901900117
S11329000C01CA01A0011124FF27591B99F0593F5A
S113291050F4503E68F11A16F040A22F232F342FA2
S11329204427585FF3CF469537952795A795F040F0
S11329305395C9F77EF41F16BA0B620B730B840B05
S1132940BAF09150A1F0FF0FBB1F661F771F881FBD
S1132950C2F70EC0BA0F621F731F841F48F4879515
S113296077956795B795F7959E3F08F0B0CF939507
S1132970880F08F09927EE0F9795879508950E9480
S1132980D3140C94BB150E94B41558F00E94AD15D5
S113299040F029F45F3F29F00C94A41551110C94D4
S11329A0EF150C94AA150E94CC1568F39923B1F382
S11329B0552391F3951B550BBB27AA276217730761
S11329C0840738F09F5F5F4F220F331F441FAA1FF5
S11329D0A9F335D00E2E3AF0E0E832D091505040B1
S11329E0E695001CCAF72BD0FE2F29D0660F771F5F
S11329F0881FBB1F261737074807AB07B0E809F045
S1132A00BB0B802DBF01FF2793585F4F3AF09E3FC9
S1132A10510578F00C94A4150C94EF155F3FE4F382
S1132A20983ED4F3869577956795B795F7959F5F0C
S1132A30C9F7880F911D9695879597F90895E1E058
S1132A40660F771F881FBB1F621773078407BA07B7
S1132A5020F0621B730B840BBA0BEE1F88F7E09512
S1132A6008950E9438156894B1110C94EF150895D7
S1132A700E94D41588F09F5798F0B92F9927B75121
S1132A80B0F0E1F0660F771F881F991F1AF0BA950E
S1132A90C9F714C0B13091F00E94EE15B1E0089569
S1132AA00C94EE15672F782F8827B85F39F0B93F5B
S1132AB0CCF3869577956795B395D9F73EF49095C1
S1132AC08095709561957F4F8F4F9F4F0895E8943F
S1132AD009C097FB3EF490958095709561957F4F62
S1132AE08F4F9F4F9923A9F0F92F96E9BB27939510
S1132AF0F695879577956795B795F111F8CFFAF420
S1132B00BB0F11F460FF1BC06F5F7F4F8F4F9F4F50
S1132B1016C0882311F096E911C0772321F09EE8AE
S1132B20872F762F05C0662371F096E8862F70E014
S1132B3060E02AF09A95660F771F881FDAF7880FEE
S1132B409695879597F9089597F99F6780E870E0BF
S1132B5060E008959FEF80EC089500240A9416160F
S1132B60170618060906089500240A941216130677
S1132B70140605060895092E0394000C11F4882305
S1132B8052F0BB0F40F4BF2B11F460FF04C06F5F21
S1132B907F4F8F4F9F4F089557FD9058440F551FF7
S1132BA059F05F3F71F04795880F97FB991F61F0CB
S1132BB09F3F79F087950895121613061406551F42
S1132BC0F2CF4695F1DF08C0161617061806991FAE
S1132BD0F1CF86957105610508940895E894BB27A3
S1132BE066277727CB0197F908950E9408160C945D
S1132BF0BB150E94AD1538F00E94B41520F0952342
S1132C0011F00C94A4150C94AA1511240C94EF152E
S1132C100E94CC1570F3959FC1F3950F50E0551F9A
S1132C20629FF001729FBB27F00DB11D639FAA271D
S1132C30F00DB11DAA1F649F6627B00DA11D661F6C
S1132C40829F2227B00DA11D621F739FB00DA11D8D
S1132C50621F839FA00D611D221F749F3327A00D47
S1132C60611D231F849F600D211D822F762F6A2FE3
S1132C7011249F5750409AF0F1F088234AF0EE0F48
S1132C80FF1FBB1F661F771F881F91505040A9F775
S1132C909E3F510580F00C94A4150C94EF155F3FF2
S1132CA0E4F3983ED4F3869577956795B795F795B1
S1132CB0E7959F5FC1F7FE2B880F911D9695879529
S1132CC097F90895DB018F939F930E94BD16BF91DE
S1132CD0AF91A29F800D911DA39F900DB29F900D67
S1132CE01124089597FB072E16F4009407D077FD5E
S1132CF009D00E94551807FC05D03EF490958195A3
S1132D009F4F0895709561957F4F0895A1E21A2E03
S1132D10AA1BBB1BFD010DC0AA1FBB1FEE1FFF1F7B
S1132D20A217B307E407F50720F0A21BB30BE40BCB
S1132D30F50B661F771F881F991F1A9469F7609512
S1132D407095809590959B01AC01BD01CF010895CC
S1132D50EE0FFF1F0590F491E02D0994A29FB0019E
S1132D60B39FC001A39F700D811D1124911DB29FBB
S1132D70700D811D1124911D08950E94AE16A59F0A
S1132D80900DB49F900DA49F800D911D1124089562
S1132D90B7FF0C94BD160E94BD16821B930B0895B9
S1132DA0DF93CF931F930F939A9DF02D219FF00DE6
S1132DB08B9DF00D8A9DE02DF10D039FF00D029F78
S1132DC0E00DF11D4E9DE00DF11D5E9DF00D4F9D3A
S1132DD0F00D7F936F93BF92AF925F934F93D501A2
S1132DE00E94AE168B01AC01D7010E94AE16EB0116
S1132DF0E80FF91FD6010E9420172F913F91D601A9
S1132E000E94AE16C60FD71FE81FF91FAF91BF91DE
S1132E100E9420172F913F910E94AE16C60FD71F14
S1132E20E81FF91FD6010E94AE16E60FF71F98019E
S1132E30BE01CF0111240F911F91CF91DF9108950D
S1132E400E94AE16460F571FC81FD91F08F43196AB
S1132E500895689401C0E894F92FF12B12F00C94B2
S1132E605D17A0E0B0E0E7E3F7E10C94CF17092E7B
S1132E70059422F40E94B917112392F4F0E80F2666
S1132E80FFEFE094F09400951095B094C094D09422
S1132E90A194BF0ACF0ADF0AEF0AFF0A0F0B1F0B28
S1132EA00E94681707FC0E94B917CDB7DEB7ECE0A3
S1132EB00C94EB17689401C0E8948F929F92CF937F
S1132EC0DF930E946817DF91CF919F908F900895B0
S1132ED088249924F401E401B0E49F93AA279A1565
S1132EE08B049C04ED05FE05CF05D007A10798F4DB
S1132EF0AD2FDC2FCF2FFE2FE92D982C892E982F64
S1132F00872F762F652F542F432F322F2227B85027
S1132F1031F7BF9127C01B2EBF91BB27220F331F50
S1132F20441F551F661F771F881F991F881C991CF3
S1132F30EE1FFF1FCC1FDD1FAA1FBB1F8A149B049B
S1132F40EC05FD05CE05DF05A007B10748F08A189A
S1132F509B08EC09FD09CE09DF09A00BB10B216028
S1132F601A94E1F62EF49401AF01BE01CD01000CD8
S1132F7008956095709580959095309540955095FD
S1132F8021953F4F4F4F5F4F6F4F7F4F8F4F9F4F55
S1132F9008952F923F924F925F926F927F928F92F9
S1132FA09F92AF92BF92CF92DF92EF92FF920F93D4
S1132FB01F93CF93DF93CDB7DEB7CA1BDB0B0FB6DE
S1132FC0F894DEBF0FBECDBF09942A88398848889B
S1132FD05F846E847D848C849B84AA84B984C88431
S1132FE0DF80EE80FD800C811B81AA81B981CE0F28
S1132FF0D11D0FB6F894DEBF0FBECDBFED0108950D
S11330000F93083090F0982F872F762F652F542F29
S1133010432F322F22270850F4CF220F331F441F8F
S1133020551F661F771F881F991F0A95B2F70F91C6
S1133030089597FB10F8169400080F93083098F041
S11330400850232F342F452F562F672F782F892F81
S1133050902DF4CF05949795879577956795579517
S11330604795379527950A95AAF70F9108952A0D44
S11330703B1D4C1D5D1D6E1D7F1D801F911F0895FE
S11330802A193B094C095D096E097F09800B910BD4
S113309008950024A7FD00942A1730054005500523
S11330A060057005800590050895AA1BBB1B51E1BE
S11330B007C0AA1FBB1FA617B70710F0A61BB70BA4
S11330C0881F991F5A95A9F780959095BC01CD0149
S11330D00895DC0101C06D9341505040E0F708951C
S11330E0AEE0B0E0E6E7F8E10C94D7170D891E894D
S11330F086E08C831A8309838FEF9FE79E838D83F9
S1133100AE01475E5F4F6F89788DCE0101960E94B4
S11331109218EF81F885E00FF11F10822E96E4E0FB
S11331200C94F317ABE0B0E0E8E9F8E10C94C917AC
S11331306C017B018A01FC0117821682838181FF65
S1133140CCC1CE0101963C01F6019381F70193FDB8
S1133150859193FF81917F01882309F4BAC1853257
S113316039F493FD859193FF81917F01853229F490
S1133170B60190E00E94891AE7CF912C212C312CC2
S1133180FFE1F315D8F08B3279F038F4803279F01E
S11331908332A1F4232D20611DC08D3261F0803370
S11331A069F4232D216016C0832D8260382EE32D0F
S11331B0E4603E2E2AC0F32DF8601DC037FC2DC0FC
S11331C020ED280F2A3040F08E32B9F436FC81C14C
S11331D0232D2064322E19C036FE06C08AE0989E44
S11331E0200D1124922E11C0EAE02E9E200D1124F0
S11331F0222EF32DF0623F2E08C08C3621F4832D4D
S11332008068382E02C0883641F4F70193FD859119
S113321093FF81917F018111B3CF982F9F7D9554A6
S1133220933028F40C5F1F4F9FE399830DC08336BE
S113323031F0833771F0833509F059C021C0F801AA
S1133240808189830E5F1F4F88248394912C5301BE
S113325013C02801F2E04F0E511CF801A080B18088
S113326036FE03C0692D70E002C06FEF7FEFC50129
S11332700E947E1A4C018201F32DFF773F2E16C067
S1133280280122E0420E511CF801A080B18036FED4
S113329003C0692D70E002C06FEF7FEFC5010E948B
S11332A0731A4C01F32DF0683F2E820133FC1BC0CE
S11332B0822D90E088169906B0F4B60180E290E081
S11332C00E94891A2A94F4CFF50137FC859137FEC0
S11332D081915F01B60190E00E94891A21102A941D
S11332E021E0821A91088114910471F7E8C08436B0
S11332F011F0893641F5F80137FE07C0608171810C
S1133300828193810C5F1F4F08C060817181072EF9
S1133310000C880B990B0E5F1F4FF32DFF763F2E89
S113332097FF09C090958095709561957F4F8F4F59
S11333309F4FF0683F2E2AE030E0A3010E94C51A97
S1133340882E861845C0853731F4232D2F7EB22E62
S11333502AE030E025C0932D997FB92E8F36C1F035
S113336018F4883579F0B5C0803719F0883721F022
S1133370B0C0E92FE061BE2EB4FE0DC0FB2DF46099
S1133380BF2E09C034FE0AC0292F2660B22E06C003
S113339028E030E005C020E130E002C020E132E066
S11333A0F801B7FE07C060817181828193810C5F4F
S11333B01F4F06C06081718180E090E00E5F1F4F57
S11333C0A3010E94C51A882E8618FB2DFF773F2E75
S11333D036FE0DC0232D2E7FA22E891458F434FE00
S11333E00BC032FC09C0832D8E7EA82E05C0B82CDC
S11333F0A32C03C0B82C01C0B92CA4FE0FC0FE013D
S1133400E80DF11D8081803321F49A2D997EA92E37
S113341009C0A2FE06C0B394B39404C08A2D867872
S113342009F0B394A3FC11C0A0FE06C0B21488F442
S1133430280C922C9B180EC0B21460F4B60180E2E2
S113344090E00E94891AB394F7CFB21418F42B18A1
S113345002C0982C212CA4FE10C0B60180E390E099
S11334600E94891AA2FE17C0A1FC03C088E790E05D
S113347002C088E590E0B6010CC08A2D867859F028
S1133480A1FE02C08BE201C080E2A7FC8DE2B6017E
S113349090E00E94891A891438F4B60180E390E020
S11334A00E94891A9A94F7CF8A94F301E80DF11DCA
S11334B08081B60190E00E94891A8110F5CF222004
S11334C009F442CEB60180E290E00E94891A2A945F
S11334D0F6CFF6018681978102C08FEF9FEF2B967E
S11334E0E2E10C94E517FC01059061507040011075
S11334F0D8F7809590958E0F9F1F0895FC01615019
S1133500704001900110D8F7809590958E0F9F1F01
S113351008950F931F93CF93DF93FB01238121FD24
S113352003C08FEF9FEF2CC022FF16C04681578146
S1133530248135814217530744F4A081B1819D0150
S11335402F5F3F4F318320838C93268137812F5FF8
S11335503F4F3783268314C08B01EC01FB010084A9
S1133560F185E02D0995892BE1F6D80116968D9108
S11335709C911797019617969C938E931697CE015C
S1133580DF91CF911F910F910895FA01AA27283056
S113359051F1203181F1E8946F936E7F6E5F7F4F1C
S11335A08F4F9F4FAF4FB1E03ED0B4E03CD0670F98
S11335B0781F891F9A1FA11D680F791F8A1F911DEB
S11335C0A11D6A0F711D811D911DA11D20D009F43B
S11335D068943F912AE0269F11243019305D31937D
S11335E0DEF6CF010895462F4770405D4193B3E066
S11335F00FD0C9F7F6CF462F4F70405D4A3318F00D
S1133600495D31FD4052419302D0A9F7EACFB4E0BD
S1133610A6959795879577956795BA95C9F7009775
S11336206105710508959B01AC010A2E0694579516
S1133630479537952795BA95C9F7620F731F841F6D
S10D3640951FA01D0895F894FFCF14
S113364A0303324449475F54313A2025750D0A0071
S113365A4449475F54323A2025640D0A00444947D5
S113366A5F54333A2025640D0A004449475F5031B8
S113367A3A2025750D0A004449475F50323A2025FD
S113368A640D0A004449475F50333A2025640D0A01
S113369A004449475F50343A2025640D0A004449DE
S11336AA475F50353A2025640D0A004449475F5064
S11336BA363A2025640D0A004449475F50373A20B8
S11336CA25640D0A004449475F50383A2025640DA1
S11336DA0A004449475F50393A2025640D0A0044D8
S11336EA49475F48313A2025640D0A004449475F37
S11336FA48323A2025640D0A004449475F48333A60
S113370A2025750D0A004449475F48343A20256448
S113371A0D0A004449475F48353A2025640D0A00DA
S113372A4449475F48363A2025640D0A0074656D9A
S113373A70202020202020202025302E31664300AE
S113374A68756D20202020202020202025302E314D
S113375A662525007072657373202020202020209E
S113376A25756D6D00626D653238305F6964006D70
S113377A707536303530006261636B6C69676874E2
S113378A00766F6C746167650025302E31660076A9
S113379A004144435F76616C756520006D70755F06
S11337AA74656D7000252E316600636F756E7465DD
S11337BA72636C6F636B7769736520006163636519
S11337CA6C5F786F75743A2025640D0A006163632F
S11337DA656C5F796F75743A2025640D0A0061631C
S11337EA63656C5F7A6F75743A2025640D0A006705
S11337FA79726F5F786F75743A2025640D0A0067D1
S113380A79726F5F796F75743A2025640D0A0067BF
S113381A79726F5F7A6F75743A2025640D0A0074A1
S113382A656D705F6F75743A2025640D0A00256C06
S113383A69003078002573256C7800256400031D1F
S113384A07062E2C292D2E2E373F00000210021CAB
S113385A07123732292D29252B3900010310A20218
S10D386A84012C2D2573257800003D
S9030000FC
