S01000006176725F746573742E73726563AC
S11300000C9433020C9450020C9450020C94500241
S11300100C9450020C9450020C9450020C94500214
S11300200C9450020C9450020C9450020C94500204
S11300300C9450020C9450020C9409040C94500239
S11300400C9450020C9450020C9450020C945002E4
S11300500C9450020C9477020C9450020C945002AD
S11300600C9450020C9450026E616E00696E66002E
S113007000407A10F35A00A0724E18090010A5D45B
S1130080E80000E87648170000E40B54020000CAB8
S11300909A3B000000E1F5050000809698000000FE
S11300A040420F000000A08601000000102700005D
S11300B00000E803000000006400000000000A00E3
S11300C0000000000100000000002C76D888DC67E6
S11300D04F0823DFC1DFAE59E1B1B796E5E3E4533E
S11300E0C63AE651997696E8E6C28426EB898C9B5B
S11300F062ED407C6FFCEFBC9C9F40F2BAA56FA5FB
S1130100F490055A2AF75C936B6CF9676DC11BFC7C
S1130110E0E40D47FEF520E6B500D0ED902E030097
S1130120943577050080841E080000204E0A0000E4
S113013000C80C333333330F986E12831141EF8DA3
S11301402114893BE65516CFFEE6DB18D1844B38E3
S11301501BF77C1D901DA4BBE424203284725E2214
S11301608100C9F124ECA1E53D270808205F0000C7
S1130170000000000000183C3C18180018006666D7
S11301802400000000006C6CFE6CFE6C6C00183ED9
S1130190603C067C180000C6CC183066C600386C7B
S11301A03876DCCC760018183000000000000C18FB
S11301B0303030180C0030180C0C0C18300000666D
S11301C03CFF3C6600000018187E18180000000070
S11301D00000001818300000007E0000000000003D
S11301E0000000181800060C183060C080007CC69F
S11301F0CED6E6C67C001838181818187E007CC6BF
S1130200061C3066FE007CC6063C06C67C001C3C10
S11302106CCCFE0C1E00FEC0C0FC06C67C00386020
S1130220C0FCC6C67C00FEC60C18303030007CC64C
S1130230C67CC6C67C007CC6C67E060C7800001848
S11302401800001818000018180000181830060CC0
S11302501830180C060000007E00007E000060309C
S1130260180C183060007CC60C18180018007CC6E6
S1130270DEDEDEC07800386CC6FEC6C6C600FC668C
S1130280667C6666FC003C66C0C0C0663C00F86CD8
S11302906666666CF800FE6268786862FE00FE625C
S11302A068786860F0003C66C0C0CE663A00C6C696
S11302B0C6FEC6C6C6003C18181818183C001E0C0A
S11302C00C0CCCCC7800E6666C786C66E600F060CA
S11302D060606266FE00C6EEFEFED6C6C600C6E6D6
S11302E0F6DECEC6C6007CC6C6C6C6C67C00FC66A4
S11302F0667C6060F0007CC6C6C6C6CE7C0EFC661A
S1130300667C6C66E6007CC660380CC67C007E7E2B
S11303105A1818183C00C6C6C6C6C6C67C00C6C64F
S1130320C6C6C66C3800C6C6C6D6D6FE6C00C6C6DF
S11303306C386CC6C6006666663C18183C00FEC67F
S11303408C183266FE003C30303030303C00C060E7
S113035030180C0602003C0C0C0C0C0C3C00103841
S11303606CC60000000000000000000000FF301810
S11303700C00000000000000780C7CCC7600E060EB
S11303807C666666DC0000007CC6C0C67C001C0C73
S11303907CCCCCCC760000007CC6FEC07C003C66E5
S11303A060F86060F000000076CCCC7C0CF8E06073
S11303B06C766666E6001800381818183C000600CB
S11303C006060666663CE060666C786CE6003818E3
S11303D0181818183C000000ECFED6D6D600000011
S11303E0DC666666660000007CC6C6C67C0000004B
S11303F0DC66667C60F0000076CCCC7C0C1E0000D1
S1130400DC766060F00000007EC07C06FC003030CA
S1130410FC3030361C000000CCCCCCCC7600000084
S1130420C6C6C66C38000000C6D6D6FE6C000000F6
S1130430C66C386CC6000000C6C6C67E06FC00004A
S11304407E4C18327E000E18187018180E001818FA
S11304501818181818007018180E1818700076DC80
S113046000000000000011241FBECFEFD8E0DEBF63
S1130470CDBF12E0A0E0B1E0E2E5F3E202C00590F6
S11304800D92AA34B107D9F725E0AAE4B2E001C07D
S11304901D92A43FB207E1F70E947E050C94A711B8
S11304A00C940000CF93DF93ACE7B0E08C918F7392
S11304B080648C93EAE7F0E0808187608083CBE7F7
S11304C0D0E08881887F836088838081886280838C
S11304D08C91807F81608C93AEE7B0E08C9181E059
S11304E08C93808180688083DF91CF9108951F92DF
S11304F00F920FB60F9211242F938F939F93EF9324
S1130500FF93E0914A0281E08E0F80934A02F0E06B
S1130510809178002091790090E0922BEE0FFF1FDC
S1130520E55BFD4F91838083FF91EF919F918F91C4
S11305302F910F900FBE0F901F901895FF920F935D
S11305401F93CF93DF93C82FF62E172F042F0E94EB
S113055033058C2F0E944705002371F0CF2DD12F36
S1130560015010E00F5F1F4F0C0F1D1F89910E9457
S11305704705C017D107D1F70E94630580E0DF91DA
S1130580CF911F910F91FF900895CF93DF93C82FC0
S1130590D62F0E9433058C2F0E9447058D2F0E9471
S11305A047050E9433058C2F81600E94470585E032
S11305B00E946905C82F0E9463058C2FDF91CF919B
S11305C00895BF92CF92DF92EF92FF920F931F9301
S11305D0CF93DF93C82F162FB42E052FD22F0E944E
S11305E033058C2F0E944705843059F081E0DF9158
S11305F0CF911F910F91FF90EF90DF90CF90BF901C
S11306000895812F0E944705843081F70E943305A5
S11306108C2F81600E944705843041F7DD2321F14E
S1130620ED2EF12C81E0E81AF108CB2CD02ED1501C
S1130630CD2FD0E0219600E010E00DC084E00E94B0
S11306406905F60180830F5F1F4FFFEFCF1ADF0AA2
S11306500C171D0749F00E151F0584F385E00E9451
S11306606905F6018083EFCF0E94630580E0BFCF68
S1130670CF93DF93EC0129E14BE454E068E88CEE7E
S11306800E94E10227E044E654E061EE8CEE0E9411
S1130690E102EBE4F4E08081918199838883828193
S11306A093819B838A83848195819D838C838681B6
S11306B097819F838E83808591859987888782859A
S11306C093859B878A87848595859D878C87868576
S11306D097859F878E8780899189998B888B82895A
S11306E093899B8B8A8B848995899D8B8C8B868936
S11306F097899F8B8E8B808D888F818D928D9A8F19
S1130700898F838D8B8F258D848D30E1839FC001EC
S11307101124322F3F70832B9D8F8C8F868D30E177
S1130720839FC001112422952F70822B9F8F8E8F5F
S1130730878D88A380E0DF91CF910895EF920F9386
S11307401F93CF93DF93CDB7DEB728970FB6F894F6
S1130750DEBF0FBECDBF92EF99838A8385EF8B8373
S1130760660F660F80E2489FA0011124462B4C833C
S113077084EF8D8380E2089F800111240E29220FCB
S1130780220F022B0E8360ED8CEE0E94C502803690
S113079069F081E028960FB6F894DEBF0FBECDBF96
S11307A0DF91CF911F910F91EF90089584E08F8393
S11307B086EB888742E0BE01695F7F4F8CEE0E9422
S11307C09E0246E0BE016F5F7F4F8CEE0E949E0248
S11307D08BE694E00E94380380E0DCCF8AB1837E0C
S11307E08AB95C9A57985F9A0895809195048C60B1
S11307F08093950416BC84B5826084BD85B58560FC
S113080085BD8DE387BDEEE6F0E080818260808364
S113081008951F920F920FB60F9211248F939F93F6
S113082099B18091950489238695869580930101D9
S113083090910101809100019817D1F080910001FD
S1130840813009F49DC008F46EC0823009F48FC071
S1130850833051F480910101813009F4A3C0809167
S11308600101823009F469C0809101018093000183
S11308704C9B3CC0809191048536E0F581508336D1
S113088010F44C994AC04F993EC0809190048F3F18
S113089029F18F5F809390049FEF980F9336E0F4D3
S11308A04F9955C0809193048F5F809393048091F6
S11308B09304811103C081E0809394048091930494
S11308C08D3709F44AC0809192049F918F910F90C3
S11308D00FBE0F901F901895853620F34F9BE2CFE3
S11308E081E08093980410929004DCCF809191046D
S11308F08F3F61F44C9B0EC081E080939904109269
S113090091044F9BC2CF80919004C6CF8F5F809398
S11309109104B2CF80919104B1CF81E080939B0484
S113092010929104B0CF80910101823009F446C045
S113093080910101813009F097CF809196048F5FF7
S113094080939604809101018093000191CF81E00E
S113095080939A0410929004A5CF81E0809392042E
S11309609F918F910F900FBE0F901F9018958091BB
S113097001018330E9F080910101811175CFDDCF50
S113098080910101811105C0809197048F5F80934C
S1130990970480910101833081F280910101809359
S11309A0000166CF809197048F5F8093970457CF9F
S11309B0809197048F5F80939704DDCF8091970493
S11309C08F5F80939704B4CF80919B04882311F0A8
S11309D084E0089580919A0481110BC08091980459
S11309E0882311F082E0089590919604923018F0D3
S11309F0089581E0089580919704823010F083E097
S1130A00089580919904811102C08FEF089585E0C3
S1130A1008950E94E4048230A9F040F0843069F023
S1130A20A0F0853069F4109299040895882391F018
S1130A30813039F410929A04089510929B04089519
S1130A4008950895109298040895109297041092AE
S1130A5096040895109296041092970408958CE0D9
S1130A608093B80008958091BC00846A8093BC0090
S1130A708091BC0087FFFCCF8091B900887F8830CB
S1130A8021F0803111F080E0089582E00895809390
S1130A90BB0084E88093BC008091BC0087FFFCCF3E
S1130AA08091B900887F21E0883109F020E091E04D
S1130AB0883209F090E0922B21F4803411F085E023
S1130AC0089584E00895ECEBF0E0808184698083EC
S1130AD00895843069F08091BC008B73846880939E
S1130AE0BC008091BC0087FFFCCF8091BB000895BF
S1130AF08091BC00846C8093BC00F3CF0E94EE0311
S1130B000E94F5030E9467090E9455090E949B09EF
S1130B1080E090E00E94CA0A78940E942E0C0E9401
S1130B2052020E942F0583E0E82E01E021E045E017
S1130B3060E081E00E949E030E94180982E30E9403
S1130B4031090E94090982EA94E00E94140660E0D7
S1130B5084E10E940608C1E00E94E4048230A9F006
S1130B608330B0F08430F9F078F18530A9F40E9434
S1130B70B20880910201909103010E94E0070E9453
S1130B8009050E94E404823059F70E940905E4CF64
S1130B908823C9F18130C9F3809102019091030146
S1130BA00E94E007D9CF0E94E6080E94CE0860E0C8
S1130BB084E10E94060880910201909103010E9441
S1130BC0E0070E940905C8CF809120018F5F8093C0
S1130BD020018091A1048F5F8093A104E0919E0481
S1130BE0F0919F048781908590939F0480939E0445
S1130BF0C093A00480910201909103010E94E00738
S1130C000E940905A9CF8091200181508093200181
S1130C108091A10481508093A104E0919E04F091FD
S1130C209F0485819681E0CF7F928F929F92AF92AD
S1130C30BF92CF92DF92EF92FF920F931F93CF93C5
S1130C40DF934C01EBE6F1E084918E5F91E1E1E208
S1130C50F1E0A2EAB4E001900D929A95E1F790E0F8
S1130C60ACE6B5E028E1E22E21E0F22E1196FC92EA
S1130C70EE9234E0D32E1296DC92129714961C92C4
S1130C801E92139742EA54E016965C934E9315977E
S1130C90E1ECF5E01896FC93EE9317971A961C92E4
S1130CA01E92199704EC14E01C961C930E931B9748
S1130CB02AE030E01E963C932E931D9750969C9309
S1130CC08E931F97BC01660F771FF182E082D28258
S1130CD014821382B683A583A3EBB4E0B087A78301
S1130CE012861186CAE4D5E0D487C3873687258760
S1130CF0708B67875B01A80EB91E1196FC92EE9269
S1130D001296DC92129714961C921E9213971696C2
S1130D10FC93EE93159718965C934E9317971A9637
S1130D201C921E9219971C961C921E921B971E963B
S1130D303C932E931D975096BC92AE921F97E1E17F
S1130D40FE2EE2E3F1E0ABE5B5E001900D92FA94FA
S1130D50E1F7ADE7B5E0F2E1CF2EF1E0DF2E119639
S1130D60DC92CE92E3E07E2E12967C921297149639
S1130D701C921E921397FBE5EF2EF5E0FF2E1696BC
S1130D80FC92EE921597EFE9F5E01896FC93EE933A
S1130D9017971A965C934E9319971C961C921E9261
S1130DA01B971E963C932E931D9750969C938E935F
S1130DB01F97D182C082728214821382B683A58364
S1130DC0F086E78252874187148613863687258703
S1130DD0708B6787A1E1FA2EE3E4F1E0D80101907A
S1130DE00D92FA94E1F7E9E3F5E0AEE0B1E0B18306
S1130DF0A083A2E0A2831482138216830583108742
S1130E000783528741871486138636872587908BFC
S1130E10878711E1E4E5F1E0DE0101900D921A9576
S1130E20E1F7E2EDF5E004E011E011830083B5E0C1
S1130E30FB2EF28214821382D683C583A3EEB5E01F
S1130E40B087A78352874187148613863687258700
S1130E50908B878711961C930E931296FC9212978F
S1130E6014961C921E9213971696FC93EE93159764
S1130E70EEE8F5E01896FC93EE9317971A965C93B8
S1130E804E9319971C961C921E921B971E963C9388
S1130E902E931D9750967C936E931F971183008316
S1130EA0F28214821382B683A583A0EBB5E0B087E7
S1130EB0A783528741871486138636872587B08A8D
S1130EC0A78611961C930E931296FC921297149671
S1130ED01C921E9213971696FC93EE9315971896F0
S1130EE0DC93CE9317971A965C934E9319971C969E
S1130EF01C921E921B971E963C932E931D97880F4F
S1130F00991F880F991F50969C938E931F979092C8
S1130F109F0480929E0481E08093A004DF91CF918E
S1130F201F910F91FF90EF90DF90CF90BF90AF9003
S1130F309F908F907F900895CF92DF92EF92FF92CF
S1130F400F931F934091020150910301FC016785A7
S1130F5070898AE6C82E81E0D82E90E2E92E9AEFB5
S1130F60F92E00E010E020E0858596850E94E70BCD
S1130F701F910F91FF90EF90DF90CF900895CF9243
S1130F80DF92EF92FF920F931F93409102015091D1
S1130F900301FC01678570898AE6C82E81E0D82E9A
S1130FA0E12CF12C00E010E020E0858596850E947C
S1130FB0E70B1F910F91FF90EF90DF90CF90089572
S1130FC08091A004882309F120919C0430919D0410
S1130FD080919E0490919F042115310551F02817AA
S1130FE0390739F0C9010E94BF0780919E0490918E
S1130FF09F040E949C0780919E0490919F0490936B
S11310009D0480939C041092A00408958F929F9253
S1131010AF92BF92CF92DF92EF92FF920F931F9302
S1131020CF93DF93C82FA62EEBE6F1E08490839450
S1131030839480919E0490919F040E94BF07A09185
S11310409E04B0919F0412968C911297882351F1BB
S1131050B12CD0E0912CE92DF0E0EE0FFF1F8D9123
S11310609C91E80FF91F40815181B501989C600D56
S1131070711D11249AE6C92E91E0D92E20EEE22E9C
S113108027E0F22E00E010E020E0CE010E94E70B02
S11310909394A0919E04B0919F0412968C91129700
S11310A09816C8F2DF91CF911F910F91FF90EF90A6
S11310B0DF90CF90BF90AF909F908F9008958F92C4
S11310C09F92AF92BF92CF92DF92EF92FF920F93D3
S11310D01F93CF93DF93EBE6F1E0849083948394A2
S11310E0A0919E04B0919F0412969C91129799230B
S11310F051F1A62EB12CC82FD0E0912CE92DF0E0AF
S1131100EE0FFF1F8D919C91E80FF91F40815181D3
S1131110B501989C600D711D11249AE6C92E91E0C9
S1131120D92EE12CF12C00E010E020E0CE010E9449
S1131130E70B9394A0919E04B0919F0412968C9116
S113114012979816D8F2CD01DF91CF911F910F918C
S1131150FF90EF90DF90CF90BF90AF909F908F90D3
S11311600C94BF0760E084E10E945F08E0919E0454
S1131170F0919F0481859285009759F090939F0484
S113118080939E0481E08093A00460E084E10C9449
S1131190060823813481232B89F7089560E084E1D4
S11311A00E945F08E0919E04F0919F0483859485DA
S11311B0009759F090939F0480939E0481E080935C
S11311C0A00460E084E10C9406080895E0919E0474
S11311D0F0919F040380F481E02D309709F0099485
S11311E008951F93CF93DF93182FD62FC42F0E94F7
S11311F03305812F0E9447058D2F0E9447058C2FB0
S11312000E9447050E94630580E0DF91CF911F9102
S1131210089540E06CE180ED0E94F10840E06BE14C
S113122080ED0E94F10840E06BE680ED0C94F1083B
S113123010928500109284008EE390E090938700D2
S113124080938600E0E8F0E080818F73806880837B
S1131250808182608083E1E8F0E08081886180831E
S11312600895853608F084E6282F30E0AEE3B0E038
S11312700E94D90F24E630E040E050E00E94B70F0E
S1131280309389002093880080918000826080934D
S11312908000809181008861809381008091810029
S11312A0887F846080938100089584B1886284B9C2
S11312B08CB58C7F8CBD8DB581608DBD8CB5806502
S11312C08CBD08958EBD0DB407FEFDCF0895219AFF
S11312D0229A249A209A08958F929F92AF92BF9255
S11312E0CF92DF92EF92FF92CF93DF932A9A411528
S11312F0510561057105A1F04A015B01EC01C12CA6
S1131300D12C760189912A9A0E9462098FEFC81A1A
S1131310D80AE80AF80A8C149D04AE04BF0491F7B5
S1131320DF91CF91FF90EF90DF90CF90BF90AF907F
S11313309F908F90089528982C9A8FE19EE40197AE
S1131340F1F700C000002C988FE19EE40197F1F7BB
S113135000C000002C9A8FE19EE40197F1F700C0D1
S113136000002A9881E00E9462099FEF22E587E04D
S1131370915020408040E1F700C000002A9881E1AC
S11313800E9462099FEF29E688E191502040804045
S1131390E1F700C000002A9881EB0E94620943E053
S11313A050E060E070E086E492E00E946C092A98C4
S11313B084EB0E9462092A9A87E00E9462092A98B3
S11313C080EC0E94620943E050E060E070E083E456
S11313D092E00E946C092A9885EC0E9462092A9A7C
S11313E08EE00E9462092A9881E20E9462092A988A
S11313F086E30E9462092A9A88E60E9462092A9872
S11314008AE30E9462092A9A85E00E9462092A9866
S113141080EE0E94620940E150E060E070E083E306
S113142092E00E946C092A9881EE0E94620940E1D0
S113143050E060E070E083E292E00E946C092A9838
S113144083E10E9462099FEF21EE84E091502040E5
S11314508040E1F700C000002A9889E20E946209F6
S11314609FEF21EE84E0915020408040E1F700C0DE
S11314700000289A0895CF92DF92EF92FF920F9383
S11314801F93CF93DF93EC016B018A0179012A98B2
S11314908BE20E9462092A9AC8014A96892F0E9407
S11314A062092A9A8AE1800F0E9462092A9AC70176
S11314B04996800F911F892F0E9462092A9A89E117
S11314C08E0D800F0E9462092A988AE20E946209A6
S11314D02A9ACE010196892F0E9462092A9A8C2F9A
S11314E08F5F0E9462092A9ACE018C0D9D1D892F5F
S11314F00E9462092A9A8C2F8C0DDF91CF911F9143
S11315000F91FF90EF90DF90CF900C9462098F922F
S11315109F92AF92BF92CF92DF92EF92FF920F937E
S11315201F936A0179012898AB01B6010E943B0A16
S11315302A988CE20E9462092A9ACE9CC001CF9C10
S1131540900DDE9C900D11244C01A12CB12C892B03
S1131550A9F0C12CD12C76012A9A812F0E9462090C
S11315602A9A802F0E9462098FEFC81AD80AE80AC3
S1131570F80AC814D904EA04FB0470F3289A1F91EA
S11315800F91FF90EF90DF90CF90BF90AF909F901E
S11315908F9008950F931F938C0120E530E040EA6B
S11315A050E060E070E080E090E00E94870A1F91C4
S11315B00F9108952F923F924F925F926F927F9274
S11315C08F929F92AF92BF92CF92DF92EF92FF924F
S11315D00F931F93CF93DF93CDB7DEB7C859D14094
S11315E00FB6F894DEBF0FBECDBF522E432EF701C7
S11315F0249126952695269531963491222E220CF7
S1131600220C220C3196E49150E04E1B5109A32F79
S1131610B0E0CB56DE4FB983A883C559D1404A9F69
S1131620F0014B9FF00D5A9FF00D1124422F50E012
S1131630C956DE4F59834883C759D140DA01EA9F1E
S1131640A001EB9F500DFA9F500D1124FA0134961E
S1131650329F90011124AE014F5F5F4FCF56DE4F92
S113166059834883C159D140A0E9CA2EDD24D394BB
S1131670DA01A6011D9241505040E1F721153105D0
S113168061F0EE0DFF1DDE0111962A0F3B1F449100
S11316904D933196A217B307D1F72898A22CB12CF9
S11316A0CB56DE4F28813981C559D140AB01B501F4
S11316B00E943B0A2A988CE20E9462092A9ACB561D
S11316C0DE4F88819981C559D140892B09F464C0C2
S11316D0CD56DE4F19821882C359D140612C712C2A
S11316E02220C9F1E12CF12C88248394912C8C0EB6
S11316F09D1ECD56DE4F88819981C359D140880EF5
S1131700991EF701F695E795F695E795F695E79511
S1131710E80DF91D3080670198E0C90ED11C0DC099
S1131720842D0E946209852D0E946209330CAFEF5B
S1131730EA1AFA0ACE14DF0451F0EA14FB0438F46E
S113174037FEEECF812F0E946209802FEDCF760104
S1131750CA14DB04B0F2BFEF6B1A7B0ACD56DE4F1E
S1131760E881F981C359D140C956DE4F28813981B6
S1131770C759D140E20FF31FCD56DE4FF983E883FA
S1131780C359D140CB56DE4F48815981C559D14008
S11317904615570509F0A4CF289AC856DE4F0FB650
S11317A0F894DEBF0FBECDBFDF91CF911F910F9193
S11317B0FF90EF90DF90CF90BF90AF909F908F906D
S11317C07F906F905F904F903F902F9008952F924D
S11317D03F924F925F926F927F928F929F92AF92BD
S11317E0BF92CF92DF92EF92FF920F931F93CF930A
S11317F0DF93EC015B01FA01280147014081442396
S1131800D1F0222E220F33083F012FEF621A720A01
S1131810760184019201B501CE010E94DA0AF60133
S113182084919101280F311DC20FD31FF3014191FF
S11318303F014111EDCFDF91CF911F910F91FF90A7
S1131840EF90DF90CF90BF90AF909F908F907F905C
S11318506F905F904F903F902F90089588E1809310
S1131860C10086E08093C20087E68093C400109292
S1131870C5000895A0E1B0E0E0E4FCE00C94E80FBA
S11318807C011B016A01FC0117821682838181FF9E
S113189044C39E012F5F3F4F3901F7019381F1014A
S11318A093FD859193FF81911F01882309F431C32E
S11318B0853239F493FD859193FF81911F0185321F
S11318C039F4B70190E00E940D1156016501E5CF8E
S11318D010E0512C912CFFE1F915D8F08B3279F0FE
S11318E038F4803279F08332A1F4F92DF0612EC0FE
S11318F08D3261F0803369F4292D21602DC0392D9A
S11319003260932E892D8460982E2AC0E92DE860D8
S113191015C097FC2DC020ED280F2A3088F496FEC0
S113192006C03AE0139F200D1124122F19C08AE03B
S1131930589E200D1124522EE92DE0629E2E10C0D7
S11319408E3231F496FCE5C2F92DF0649F2E08C066
S11319508C3621F4292D2068922E02C0883641F459
S1131960F10193FD859193FF81911F018111B3CF03
S11319709BEB980F933020F4992D9061805E07C003
S11319809BE9980F933008F066C1992D9F7E96FFCE
S113199016E09F73992E853619F49064992E08C029
S11319A0863621F4392F3068932E02C0111111505C
S11319B097FE07C01C3350F444244394410E27E09F
S11319C00BC0183038F027E017E005C027E09CE38F
S11319D0492E02C0212F412C560184E0A80EB11CCF
S11319E0F6016081718182819381042DA3010E949B
S11319F01F106C01F981FC87F0FF02C0F3FF06C0E1
S1131A0091FC06C092FE06C000E205C00DE203C0D0
S1131A100BE201C000E08C858C7019F001115AC2F0
S1131A209BC297FE10C04C0CFC85F4FF04C08A8155
S1131A30813309F44A94141474F528E0241578F5D4
S1131A4088E0482E2CC096FC2AC0812F90E08C158B
S1131A509D059CF03CEFC3163FEFD30674F0892D2F
S1131A608068982E0AC0E2E0F0E0EC0FFD1FE10F61
S1131A70F11D8081803319F411501111F4CF97FEB8
S1131A800EC044244394410E812F90E0C816D90619
S1131A902CF41C1904C04424439401C010E097FEA4
S1131AA006C01C141D0434F4C601019605C085E06B
S1131AB090E002C081E090E001110196112331F021
S1131AC0212F30E02F5F3F4F820F931F252D30E0F1
S1131AD08217930714F4581A01C0512C892D897068
S1131AE049F4552039F0B70180E290E00E940D11CD
S1131AF05A94F7CF002329F0B701802F90E00E9479
S1131B000D1193FC09C0552039F0B70180E390E032
S1131B100E940D115A94F7CF97FE4CC04601D7FE90
S1131B2002C0812C912CC60188199909F301E80F90
S1131B30F91FFE87ED87960124193109388B2F8709
S1131B40012F10E01195019511093FEF83169306BB
S1131B5029F4B7018EE290E00E940D11C814D90453
S1131B604CF08F8598898815990524F4ED85FE85B8
S1131B70818101C080E3F1E08F1A91082D853E85B3
S1131B802F5F3F4F3E872D87801691062CF0B701BB
S1131B9090E00E940D11D9CFC814D90441F49A8160
S1131BA0963320F4953319F43C8534FF81E3B7016F
S1131BB090E04EC08A81813319F09C859F7E9C877A
S1131BC0B70190E00E940D11111105C094FC18C0DA
S1131BD085E690E017C0B7018EE290E00E940D11F7
S1131BE01E5F82E001E0080FF301E80FF11D808120
S1131BF0B70190E00E940D11802F0113F3CFE6CFBF
S1131C0085E490E0B7010E940D11D7FC06C0C11411
S1131C10D10441F4EC85E4FF05C0D194C194D1080A
S1131C208DE201C08BE2B70190E00E940D1180E3C8
S1131C302AE0C216D1042CF08F5FFAE0CF1AD10843
S1131C40F7CFB70190E00E940D11B701C601C0960D
S1131C500E940D1154C1833631F0833779F08335F6
S1131C6009F056C020C0560132E0A30EB11CF601A3
S1131C708081898301E010E0630112C05601F2E023
S1131C80AF0EB11CF601C080D18096FE03C0612F57
S1131C9070E002C06FEF7FEFC6010E9402118C0159
S1131CA0F92DFF7714C0560122E0A20EB11CF601F3
S1131CB0C080D18096FE03C0612F70E002C06FEF38
S1131CC07FEFC6010E94F7108C01F92DF0689F2E5A
S1131CD0F3FD1AC0852D90E008171907A8F4B70181
S1131CE080E290E00E940D115A94F4CFF60197FC23
S1131CF0859197FE81916F01B70190E00E940D11CB
S1131D0051105A94015011090115110579F7F7C0C2
S1131D10843611F0893661F5560197FE09C024E036
S1131D20A20EB11CF60160817181828193810AC087
S1131D30F2E0AF0EB11CF60160817181072E000C38
S1131D40880B990BF92DFF769F2E97FF09C090956C
S1131D508095709561957F4F8F4F9F4FF0689F2EB0
S1131D602AE030E0A3010E944911C82EC6183FC0E2
S1131D70092D853721F40F7E2AE030E01DC0097F4C
S1131D808F3691F018F4883559F0C3C0803719F0B4
S1131D90883711F0BEC0006104FF09C0046007C0A9
S1131DA094FE08C0066006C028E030E005C020E1CB
S1131DB030E002C020E132E0560107FF09C084E0B0
S1131DC0A80EB11CF601608171818281938108C0E3
S1131DD0F2E0AF0EB11CF6016081718180E090E009
S1131DE0A3010E944911C82EC6180F77902E96FEA3
S1131DF00BC0092D0E7FC11650F494FE0AC092FC4C
S1131E0008C0092D0E7E05C0DC2C092D03C0DC2C76
S1131E1001C0D12E04FF0DC0FE01EC0DF11D808127
S1131E20803311F4097E09C002FF06C0D394D39411
S1131E3004C0802F867809F0D39403FD11C000FFFD
S1131E4006C01C2DD51480F4150D1D190DC0D51414
S1131E5058F4B70180E290E00E940D11D394F7CFBB
S1131E60D51410F45D1801C0512C04FF10C0B70143
S1131E7080E390E00E940D1102FF17C001FD03C032
S1131E8088E790E002C088E590E0B7010CC0802F9D
S1131E90867859F001FF02C08BE201C080E207FDA1
S1131EA08DE2B70190E00E940D11C11638F4B7011C
S1131EB080E390E00E940D111150F7CFCA94F30112
S1131EC0EC0DF11D8081B70190E00E940D11C1104D
S1131ED0F5CF15C0F4E0F51560F584E0581A93FECB
S1131EE01FC0011127C02C8523FF2AC008E610E07B
S1131EF0392D3071932EF8018491811124C055201D
S1131F0009F4E4CCB70180E290E00E940D115A94E8
S1131F10F6CFF7018681978126C08FEF9FEF23C00C
S1131F20B70180E290E00E940D115A945110F8CF4D
S1131F30D8CF512CB701802F90E00E940D11D3CF40
S1131F400CE610E0D5CF91108052B70190E00E94CA
S1131F500D110F5F1F4FCFCF23E0251510F483E041
S1131F60BDCF512CC0CF6096E2E10C940410A1E2E5
S1131F701A2EAA1BBB1BFD010DC0AA1FBB1FEE1FFF
S1131F80FF1FA217B307E407F50720F0A21BB30B4A
S1131F90E40BF50B661F771F881F991F1A9469F7C6
S1131FA060957095809590959B01AC01BD01CF0122
S1131FB00895A29FB001B39FC001A39F700D811D1E
S1131FC01124911DB29F700D811D1124911D08953E
S1131FD02F923F924F925F926F927F928F929F9235
S1131FE0AF92BF92CF92DF92EF92FF920F931F9323
S1131FF0CF93DF93CDB7DEB7CA1BDB0B0FB6F894D4
S1132000DEBF0FBECDBF09942A88398848885F8413
S11320106E847D848C849B84AA84B984C884DF8084
S1132020EE80FD800C811B81AA81B981CE0FD11D68
S11320300FB6F894DEBF0FBECDBFED010895283072
S113204008F027E03327DA01990F311D87FD9160ED
S113205000966105710539F432602E5F3D9330E3DB
S11320602A95E1F708959F3F30F0803871056105A6
S113207009F03C5F3C5F3D93913008F08068911D0E
S1132080DF93CF931F930F93FF92EF92192F987FB3
S11320909695E92F96959695E90FFF27E653FF4FFE
S11320A099273327EE24FF24A701E701059008941C
S11320B0079428F4360FE71EF81E491F511D660FBA
S11320C0771F881F991F0694A1F70590079428F499
S11320D0E70EF81E491F561FC11D770F881F991F51
S11320E0661F0694A1F70590079428F4F80E491F7B
S11320F0561FC71FD11D880F991F661F771F06948F
S1132100A1F70590079420F4490F561FC71FD81F45
S1132110990F661F771F881F0694A9F7849110955D
S1132120177041F0D695C79557954795F794E7945E
S11321301A95C1F7E0E7F0E0689415901591359190
S11321406591959105907FE27395E118F10A430B2F
S1132150560BC90BD009C0F7E10CF11E431F561FE3
S1132160C91FD01D7EF4703311F48A95E6CFE8942C
S1132170015030F0080F0AF40027021708F4202F4A
S11321802395022F7A3328F079E37D932A95E9F792
S113219010C07D932A9589F606949795679537958F
S11321A017951794E118F10A430B560BC90BD00984
S11321B098F023957E9173957A3308F070E37C93BD
S11321C02013B8F77E9170617D9330F0839571E3AD
S11321D07D9370E32A95E1F71124EF90FF900F911E
S11321E01F91CF91DF91992787FD90950895FC0168
S11321F00590615070400110D8F7809590958E0F2E
S11322009F1F0895FC016150704001900110D8F7A0
S1132210809590958E0F9F1F08950F931F93CF93D2
S1132220DF93FB01238121FD03C08FEF9FEF2CC0BF
S113223022FF16C0468157812481358142175307F6
S113224044F4A081B1819D012F5F3F4F31832083EE
S11322508C93268137812F5F3F4F3783268314C0A9
S11322608B01EC01FB010084F185E02D0995892B9C
S1132270E1F6D80116968D919C91179701961796C1
S11322809C938E931697CE01DF91CF911F910F915E
S11322900895FA01AA27283051F1203181F1E894F8
S11322A06F936E7F6E5F7F4F8F4F9F4FAF4FB1E045
S11322B03ED0B4E03CD0670F781F891F9A1FA11D40
S11322C0680F791F8A1F911DA11D6A0F711D811D41
S11322D0911DA11D20D009F468943F912AE0269F06
S11322E011243019305D3193DEF6CF010895462F65
S11322F04770405D4193B3E00FD0C9F7F6CF462F46
S11323004F70405D4A3318F0495D31FD40524193AE
S113231002D0A9F7EACFB4E0A6959795879577956B
S11323206795BA95C9F700976105710508959B01F2
S1132330AC010A2E06945795479537952795BA957B
S1132340C9F7620F731F841F951FA01D0895F89489
S1052350FFCFB9
S11323520303650167017501830191019F01AD01C9
S1132362BB01C901D701E501F301FF010B02170209
S1132372321801040000B3046C0500005B050A0076
S1132382000012010300009F057D05A20400000A5B
S11323920000000E0102000039053905A204000004
S11323A20A0000000401050000B005D205A20400E1
S11323B2000A0000003E004D454E555F4954454D0C
S11323C25F332E31004D454E555F4954454D5F33C1
S11323D22E32004D454E555F4954454D5F332E33E1
S11323E2004D454E555F4954454D5F332E34004DE3
S11323F2454E555F4954454D5F332E35004D454E8C
S1132402555F4954454D5F322E31004D454E555F5F
S11324124954454D5F322E32004D454E555F495465
S1132422454D5F312E31004D454E555F4954454D62
S11324325F312E32004D454E555F4954454D5F3153
S11324422E33004D454E555F4954454D5F31004D85
S1132452454E555F4954454D5F32004D454E555FDB
S11324624954454D5F33004D454E555F4954454DE2
S11324725F3400031D07062E2C292D2E2E373F0014
S1132482000210021C07123732292D29252B39008C
S10D2492010310A20284012C2D00A6
S9030000FC
